{
	"contracts/HelloWord.sol": {
		"Errors": {
			"abi": [
				{
					"inputs": [
						{
							"internalType": "address",
							"name": "caller",
							"type": "address"
						},
						{
							"internalType": "uint256",
							"name": "i",
							"type": "uint256"
						}
					],
					"name": "MyError",
					"type": "error"
				},
				{
					"inputs": [],
					"name": "a",
					"outputs": [
						{
							"internalType": "uint256",
							"name": "",
							"type": "uint256"
						}
					],
					"stateMutability": "view",
					"type": "function"
				},
				{
					"inputs": [],
					"name": "foo",
					"outputs": [],
					"stateMutability": "nonpayable",
					"type": "function"
				},
				{
					"inputs": [
						{
							"internalType": "uint256",
							"name": "_i",
							"type": "uint256"
						}
					],
					"name": "foo2",
					"outputs": [],
					"stateMutability": "view",
					"type": "function"
				},
				{
					"inputs": [],
					"name": "testAssert",
					"outputs": [],
					"stateMutability": "view",
					"type": "function"
				},
				{
					"inputs": [
						{
							"internalType": "uint256",
							"name": "_i",
							"type": "uint256"
						}
					],
					"name": "testRequire",
					"outputs": [],
					"stateMutability": "pure",
					"type": "function"
				},
				{
					"inputs": [
						{
							"internalType": "uint256",
							"name": "_i",
							"type": "uint256"
						}
					],
					"name": "testRevert",
					"outputs": [],
					"stateMutability": "pure",
					"type": "function"
				}
			],
			"devdoc": {
				"kind": "dev",
				"methods": {},
				"version": 1
			},
			"evm": {
				"assembly": "    /* \"contracts/HelloWord.sol\":831:1441  contract Errors {... */\n  mstore(0x40, 0x80)\n    /* \"contracts/HelloWord.sol\":973:974  1 */\n  0x01\n    /* \"contracts/HelloWord.sol\":957:974  uint public a = 1 */\n  0x00\n  sstore\n    /* \"contracts/HelloWord.sol\":831:1441  contract Errors {... */\n  callvalue\n  dup1\n  iszero\n  tag_1\n  jumpi\n  0x00\n  dup1\n  revert\ntag_1:\n  pop\n  dataSize(sub_0)\n  dup1\n  dataOffset(sub_0)\n  0x00\n  codecopy\n  0x00\n  return\nstop\n\nsub_0: assembly {\n        /* \"contracts/HelloWord.sol\":831:1441  contract Errors {... */\n      mstore(0x40, 0x80)\n      callvalue\n      dup1\n      iszero\n      tag_1\n      jumpi\n      0x00\n      dup1\n      revert\n    tag_1:\n      pop\n      jumpi(tag_2, lt(calldatasize, 0x04))\n      shr(0xe0, calldataload(0x00))\n      dup1\n      0x0dbe671f\n      eq\n      tag_3\n      jumpi\n      dup1\n      0x20987767\n      eq\n      tag_4\n      jumpi\n      dup1\n      0x2b813bc0\n      eq\n      tag_5\n      jumpi\n      dup1\n      0x7d5f3b35\n      eq\n      tag_6\n      jumpi\n      dup1\n      0xb8bd717f\n      eq\n      tag_7\n      jumpi\n      dup1\n      0xc2985578\n      eq\n      tag_8\n      jumpi\n    tag_2:\n      0x00\n      dup1\n      revert\n        /* \"contracts/HelloWord.sol\":957:974  uint public a = 1 */\n    tag_3:\n      tag_9\n      tag_10\n      jump\t// in\n    tag_9:\n      mload(0x40)\n      tag_11\n      swap2\n      swap1\n      tag_12\n      jump\t// in\n    tag_11:\n      mload(0x40)\n      dup1\n      swap2\n      sub\n      swap1\n      return\n        /* \"contracts/HelloWord.sol\":980:1103  function testRevert(uint _i) public pure {... */\n    tag_4:\n      tag_13\n      0x04\n      dup1\n      calldatasize\n      sub\n      dup2\n      add\n      swap1\n      tag_14\n      swap2\n      swap1\n      tag_15\n      jump\t// in\n    tag_14:\n      tag_16\n      jump\t// in\n    tag_13:\n      stop\n        /* \"contracts/HelloWord.sol\":1109:1175  function testAssert() public view {... */\n    tag_5:\n      tag_17\n      tag_18\n      jump\t// in\n    tag_17:\n      stop\n        /* \"contracts/HelloWord.sol\":1322:1438  function foo2(uint _i) public view {... */\n    tag_6:\n      tag_19\n      0x04\n      dup1\n      calldatasize\n      sub\n      dup2\n      add\n      swap1\n      tag_20\n      swap2\n      swap1\n      tag_15\n      jump\t// in\n    tag_20:\n      tag_21\n      jump\t// in\n    tag_19:\n      stop\n        /* \"contracts/HelloWord.sol\":853:952  function testRequire(uint _i) public pure {... */\n    tag_7:\n      tag_22\n      0x04\n      dup1\n      calldatasize\n      sub\n      dup2\n      add\n      swap1\n      tag_23\n      swap2\n      swap1\n      tag_15\n      jump\t// in\n    tag_23:\n      tag_24\n      jump\t// in\n    tag_22:\n      stop\n        /* \"contracts/HelloWord.sol\":1225:1316  function foo() public {... */\n    tag_8:\n      tag_25\n      tag_26\n      jump\t// in\n    tag_25:\n      stop\n        /* \"contracts/HelloWord.sol\":957:974  uint public a = 1 */\n    tag_10:\n      sload(0x00)\n      dup2\n      jump\t// out\n        /* \"contracts/HelloWord.sol\":980:1103  function testRevert(uint _i) public pure {... */\n    tag_16:\n        /* \"contracts/HelloWord.sol\":1039:1041  10 */\n      0x0a\n        /* \"contracts/HelloWord.sol\":1035:1037  _i */\n      dup2\n        /* \"contracts/HelloWord.sol\":1035:1041  _i >10 */\n      gt\n        /* \"contracts/HelloWord.sol\":1031:1097  if (_i >10){... */\n      iszero\n      tag_28\n      jumpi\n        /* \"contracts/HelloWord.sol\":1056:1086  revert(\"_i must less than 10\") */\n      mload(0x40)\n      0x08c379a000000000000000000000000000000000000000000000000000000000\n      dup2\n      mstore\n      0x04\n      add\n      tag_29\n      swap1\n      tag_30\n      jump\t// in\n    tag_29:\n      mload(0x40)\n      dup1\n      swap2\n      sub\n      swap1\n      revert\n        /* \"contracts/HelloWord.sol\":1031:1097  if (_i >10){... */\n    tag_28:\n        /* \"contracts/HelloWord.sol\":980:1103  function testRevert(uint _i) public pure {... */\n      pop\n      jump\t// out\n        /* \"contracts/HelloWord.sol\":1109:1175  function testAssert() public view {... */\n    tag_18:\n        /* \"contracts/HelloWord.sol\":1163:1167  1233 */\n      0x04d1\n        /* \"contracts/HelloWord.sol\":1160:1161  a */\n      sload(0x00)\n        /* \"contracts/HelloWord.sol\":1160:1167  a==1233 */\n      eq\n        /* \"contracts/HelloWord.sol\":1153:1168  assert(a==1233) */\n      tag_32\n      jumpi\n      tag_33\n      tag_34\n      jump\t// in\n    tag_33:\n    tag_32:\n        /* \"contracts/HelloWord.sol\":1109:1175  function testAssert() public view {... */\n      jump\t// out\n        /* \"contracts/HelloWord.sol\":1322:1438  function foo2(uint _i) public view {... */\n    tag_21:\n        /* \"contracts/HelloWord.sol\":1374:1376  10 */\n      0x0a\n        /* \"contracts/HelloWord.sol\":1371:1373  _i */\n      dup2\n        /* \"contracts/HelloWord.sol\":1371:1376  _i>10 */\n      gt\n        /* \"contracts/HelloWord.sol\":1367:1432  if (_i>10){... */\n      iszero\n      tag_36\n      jumpi\n        /* \"contracts/HelloWord.sol\":1406:1416  msg.sender */\n      caller\n        /* \"contracts/HelloWord.sol\":1418:1420  _i */\n      dup2\n        /* \"contracts/HelloWord.sol\":1398:1421  MyError(msg.sender, _i) */\n      mload(0x40)\n      0xe2399bb800000000000000000000000000000000000000000000000000000000\n      dup2\n      mstore\n      0x04\n      add\n      tag_37\n      swap3\n      swap2\n      swap1\n      tag_38\n      jump\t// in\n    tag_37:\n      mload(0x40)\n      dup1\n      swap2\n      sub\n      swap1\n      revert\n        /* \"contracts/HelloWord.sol\":1367:1432  if (_i>10){... */\n    tag_36:\n        /* \"contracts/HelloWord.sol\":1322:1438  function foo2(uint _i) public view {... */\n      pop\n      jump\t// out\n        /* \"contracts/HelloWord.sol\":853:952  function testRequire(uint _i) public pure {... */\n    tag_24:\n        /* \"contracts/HelloWord.sol\":918:920  10 */\n      0x0a\n        /* \"contracts/HelloWord.sol\":913:915  _i */\n      dup2\n        /* \"contracts/HelloWord.sol\":913:920  _i < 10 */\n      lt\n        /* \"contracts/HelloWord.sol\":905:945  require(_i < 10, \"_i must less than 10\") */\n      tag_40\n      jumpi\n      mload(0x40)\n      0x08c379a000000000000000000000000000000000000000000000000000000000\n      dup2\n      mstore\n      0x04\n      add\n      tag_41\n      swap1\n      tag_30\n      jump\t// in\n    tag_41:\n      mload(0x40)\n      dup1\n      swap2\n      sub\n      swap1\n      revert\n    tag_40:\n        /* \"contracts/HelloWord.sol\":853:952  function testRequire(uint _i) public pure {... */\n      pop\n      jump\t// out\n        /* \"contracts/HelloWord.sol\":1225:1316  function foo() public {... */\n    tag_26:\n        /* \"contracts/HelloWord.sol\":1262:1263  1 */\n      0x01\n        /* \"contracts/HelloWord.sol\":1257:1258  a */\n      0x00\n      dup1\n        /* \"contracts/HelloWord.sol\":1257:1263  a += 1 */\n      dup3\n      dup3\n      sload\n      tag_43\n      swap2\n      swap1\n      tag_44\n      jump\t// in\n    tag_43:\n      swap3\n      pop\n      pop\n      dup2\n      swap1\n      sstore\n      pop\n        /* \"contracts/HelloWord.sol\":1283:1285  10 */\n      0x0a\n        /* \"contracts/HelloWord.sol\":1281:1282  a */\n      sload(0x00)\n        /* \"contracts/HelloWord.sol\":1281:1285  a<10 */\n      lt\n        /* \"contracts/HelloWord.sol\":1273:1309  require(a<10, \"i must less than 10\") */\n      tag_45\n      jumpi\n      mload(0x40)\n      0x08c379a000000000000000000000000000000000000000000000000000000000\n      dup2\n      mstore\n      0x04\n      add\n      tag_46\n      swap1\n      tag_47\n      jump\t// in\n    tag_46:\n      mload(0x40)\n      dup1\n      swap2\n      sub\n      swap1\n      revert\n    tag_45:\n        /* \"contracts/HelloWord.sol\":1225:1316  function foo() public {... */\n      jump\t// out\n        /* \"#utility.yul\":7:84   */\n    tag_48:\n        /* \"#utility.yul\":44:51   */\n      0x00\n        /* \"#utility.yul\":73:78   */\n      dup2\n        /* \"#utility.yul\":62:78   */\n      swap1\n      pop\n        /* \"#utility.yul\":7:84   */\n      swap2\n      swap1\n      pop\n      jump\t// out\n        /* \"#utility.yul\":90:208   */\n    tag_49:\n        /* \"#utility.yul\":177:201   */\n      tag_67\n        /* \"#utility.yul\":195:200   */\n      dup2\n        /* \"#utility.yul\":177:201   */\n      tag_48\n      jump\t// in\n    tag_67:\n        /* \"#utility.yul\":172:175   */\n      dup3\n        /* \"#utility.yul\":165:202   */\n      mstore\n        /* \"#utility.yul\":90:208   */\n      pop\n      pop\n      jump\t// out\n        /* \"#utility.yul\":214:436   */\n    tag_12:\n        /* \"#utility.yul\":307:311   */\n      0x00\n        /* \"#utility.yul\":345:347   */\n      0x20\n        /* \"#utility.yul\":334:343   */\n      dup3\n        /* \"#utility.yul\":330:348   */\n      add\n        /* \"#utility.yul\":322:348   */\n      swap1\n      pop\n        /* \"#utility.yul\":358:429   */\n      tag_69\n        /* \"#utility.yul\":426:427   */\n      0x00\n        /* \"#utility.yul\":415:424   */\n      dup4\n        /* \"#utility.yul\":411:428   */\n      add\n        /* \"#utility.yul\":402:408   */\n      dup5\n        /* \"#utility.yul\":358:429   */\n      tag_49\n      jump\t// in\n    tag_69:\n        /* \"#utility.yul\":214:436   */\n      swap3\n      swap2\n      pop\n      pop\n      jump\t// out\n        /* \"#utility.yul\":523:640   */\n    tag_51:\n        /* \"#utility.yul\":632:633   */\n      0x00\n        /* \"#utility.yul\":629:630   */\n      dup1\n        /* \"#utility.yul\":622:634   */\n      revert\n        /* \"#utility.yul\":769:891   */\n    tag_53:\n        /* \"#utility.yul\":842:866   */\n      tag_74\n        /* \"#utility.yul\":860:865   */\n      dup2\n        /* \"#utility.yul\":842:866   */\n      tag_48\n      jump\t// in\n    tag_74:\n        /* \"#utility.yul\":835:840   */\n      dup2\n        /* \"#utility.yul\":832:867   */\n      eq\n        /* \"#utility.yul\":822:885   */\n      tag_75\n      jumpi\n        /* \"#utility.yul\":881:882   */\n      0x00\n        /* \"#utility.yul\":878:879   */\n      dup1\n        /* \"#utility.yul\":871:883   */\n      revert\n        /* \"#utility.yul\":822:885   */\n    tag_75:\n        /* \"#utility.yul\":769:891   */\n      pop\n      jump\t// out\n        /* \"#utility.yul\":897:1036   */\n    tag_54:\n        /* \"#utility.yul\":943:948   */\n      0x00\n        /* \"#utility.yul\":981:987   */\n      dup2\n        /* \"#utility.yul\":968:988   */\n      calldataload\n        /* \"#utility.yul\":959:988   */\n      swap1\n      pop\n        /* \"#utility.yul\":997:1030   */\n      tag_77\n        /* \"#utility.yul\":1024:1029   */\n      dup2\n        /* \"#utility.yul\":997:1030   */\n      tag_53\n      jump\t// in\n    tag_77:\n        /* \"#utility.yul\":897:1036   */\n      swap3\n      swap2\n      pop\n      pop\n      jump\t// out\n        /* \"#utility.yul\":1042:1371   */\n    tag_15:\n        /* \"#utility.yul\":1101:1107   */\n      0x00\n        /* \"#utility.yul\":1150:1152   */\n      0x20\n        /* \"#utility.yul\":1138:1147   */\n      dup3\n        /* \"#utility.yul\":1129:1136   */\n      dup5\n        /* \"#utility.yul\":1125:1148   */\n      sub\n        /* \"#utility.yul\":1121:1153   */\n      slt\n        /* \"#utility.yul\":1118:1237   */\n      iszero\n      tag_79\n      jumpi\n        /* \"#utility.yul\":1156:1235   */\n      tag_80\n      tag_51\n      jump\t// in\n    tag_80:\n        /* \"#utility.yul\":1118:1237   */\n    tag_79:\n        /* \"#utility.yul\":1276:1277   */\n      0x00\n        /* \"#utility.yul\":1301:1354   */\n      tag_81\n        /* \"#utility.yul\":1346:1353   */\n      dup5\n        /* \"#utility.yul\":1337:1343   */\n      dup3\n        /* \"#utility.yul\":1326:1335   */\n      dup6\n        /* \"#utility.yul\":1322:1344   */\n      add\n        /* \"#utility.yul\":1301:1354   */\n      tag_54\n      jump\t// in\n    tag_81:\n        /* \"#utility.yul\":1291:1354   */\n      swap2\n      pop\n        /* \"#utility.yul\":1247:1364   */\n      pop\n        /* \"#utility.yul\":1042:1371   */\n      swap3\n      swap2\n      pop\n      pop\n      jump\t// out\n        /* \"#utility.yul\":1377:1546   */\n    tag_55:\n        /* \"#utility.yul\":1461:1472   */\n      0x00\n        /* \"#utility.yul\":1495:1501   */\n      dup3\n        /* \"#utility.yul\":1490:1493   */\n      dup3\n        /* \"#utility.yul\":1483:1502   */\n      mstore\n        /* \"#utility.yul\":1535:1539   */\n      0x20\n        /* \"#utility.yul\":1530:1533   */\n      dup3\n        /* \"#utility.yul\":1526:1540   */\n      add\n        /* \"#utility.yul\":1511:1540   */\n      swap1\n      pop\n        /* \"#utility.yul\":1377:1546   */\n      swap3\n      swap2\n      pop\n      pop\n      jump\t// out\n        /* \"#utility.yul\":1552:1722   */\n    tag_56:\n        /* \"#utility.yul\":1692:1714   */\n      0x5f69206d757374206c657373207468616e203130000000000000000000000000\n        /* \"#utility.yul\":1688:1689   */\n      0x00\n        /* \"#utility.yul\":1680:1686   */\n      dup3\n        /* \"#utility.yul\":1676:1690   */\n      add\n        /* \"#utility.yul\":1669:1715   */\n      mstore\n        /* \"#utility.yul\":1552:1722   */\n      pop\n      jump\t// out\n        /* \"#utility.yul\":1728:2094   */\n    tag_57:\n        /* \"#utility.yul\":1870:1873   */\n      0x00\n        /* \"#utility.yul\":1891:1958   */\n      tag_85\n        /* \"#utility.yul\":1955:1957   */\n      0x14\n        /* \"#utility.yul\":1950:1953   */\n      dup4\n        /* \"#utility.yul\":1891:1958   */\n      tag_55\n      jump\t// in\n    tag_85:\n        /* \"#utility.yul\":1884:1958   */\n      swap2\n      pop\n        /* \"#utility.yul\":1967:2060   */\n      tag_86\n        /* \"#utility.yul\":2056:2059   */\n      dup3\n        /* \"#utility.yul\":1967:2060   */\n      tag_56\n      jump\t// in\n    tag_86:\n        /* \"#utility.yul\":2085:2087   */\n      0x20\n        /* \"#utility.yul\":2080:2083   */\n      dup3\n        /* \"#utility.yul\":2076:2088   */\n      add\n        /* \"#utility.yul\":2069:2088   */\n      swap1\n      pop\n        /* \"#utility.yul\":1728:2094   */\n      swap2\n      swap1\n      pop\n      jump\t// out\n        /* \"#utility.yul\":2100:2519   */\n    tag_30:\n        /* \"#utility.yul\":2266:2270   */\n      0x00\n        /* \"#utility.yul\":2304:2306   */\n      0x20\n        /* \"#utility.yul\":2293:2302   */\n      dup3\n        /* \"#utility.yul\":2289:2307   */\n      add\n        /* \"#utility.yul\":2281:2307   */\n      swap1\n      pop\n        /* \"#utility.yul\":2353:2362   */\n      dup2\n        /* \"#utility.yul\":2347:2351   */\n      dup2\n        /* \"#utility.yul\":2343:2363   */\n      sub\n        /* \"#utility.yul\":2339:2340   */\n      0x00\n        /* \"#utility.yul\":2328:2337   */\n      dup4\n        /* \"#utility.yul\":2324:2341   */\n      add\n        /* \"#utility.yul\":2317:2364   */\n      mstore\n        /* \"#utility.yul\":2381:2512   */\n      tag_88\n        /* \"#utility.yul\":2507:2511   */\n      dup2\n        /* \"#utility.yul\":2381:2512   */\n      tag_57\n      jump\t// in\n    tag_88:\n        /* \"#utility.yul\":2373:2512   */\n      swap1\n      pop\n        /* \"#utility.yul\":2100:2519   */\n      swap2\n      swap1\n      pop\n      jump\t// out\n        /* \"#utility.yul\":2525:2705   */\n    tag_34:\n        /* \"#utility.yul\":2573:2650   */\n      0x4e487b7100000000000000000000000000000000000000000000000000000000\n        /* \"#utility.yul\":2570:2571   */\n      0x00\n        /* \"#utility.yul\":2563:2651   */\n      mstore\n        /* \"#utility.yul\":2670:2674   */\n      0x01\n        /* \"#utility.yul\":2667:2668   */\n      0x04\n        /* \"#utility.yul\":2660:2675   */\n      mstore\n        /* \"#utility.yul\":2694:2698   */\n      0x24\n        /* \"#utility.yul\":2691:2692   */\n      0x00\n        /* \"#utility.yul\":2684:2699   */\n      revert\n        /* \"#utility.yul\":2711:2837   */\n    tag_58:\n        /* \"#utility.yul\":2748:2755   */\n      0x00\n        /* \"#utility.yul\":2788:2830   */\n      0xffffffffffffffffffffffffffffffffffffffff\n        /* \"#utility.yul\":2781:2786   */\n      dup3\n        /* \"#utility.yul\":2777:2831   */\n      and\n        /* \"#utility.yul\":2766:2831   */\n      swap1\n      pop\n        /* \"#utility.yul\":2711:2837   */\n      swap2\n      swap1\n      pop\n      jump\t// out\n        /* \"#utility.yul\":2843:2939   */\n    tag_59:\n        /* \"#utility.yul\":2880:2887   */\n      0x00\n        /* \"#utility.yul\":2909:2933   */\n      tag_92\n        /* \"#utility.yul\":2927:2932   */\n      dup3\n        /* \"#utility.yul\":2909:2933   */\n      tag_58\n      jump\t// in\n    tag_92:\n        /* \"#utility.yul\":2898:2933   */\n      swap1\n      pop\n        /* \"#utility.yul\":2843:2939   */\n      swap2\n      swap1\n      pop\n      jump\t// out\n        /* \"#utility.yul\":2945:3063   */\n    tag_60:\n        /* \"#utility.yul\":3032:3056   */\n      tag_94\n        /* \"#utility.yul\":3050:3055   */\n      dup2\n        /* \"#utility.yul\":3032:3056   */\n      tag_59\n      jump\t// in\n    tag_94:\n        /* \"#utility.yul\":3027:3030   */\n      dup3\n        /* \"#utility.yul\":3020:3057   */\n      mstore\n        /* \"#utility.yul\":2945:3063   */\n      pop\n      pop\n      jump\t// out\n        /* \"#utility.yul\":3069:3401   */\n    tag_38:\n        /* \"#utility.yul\":3190:3194   */\n      0x00\n        /* \"#utility.yul\":3228:3230   */\n      0x40\n        /* \"#utility.yul\":3217:3226   */\n      dup3\n        /* \"#utility.yul\":3213:3231   */\n      add\n        /* \"#utility.yul\":3205:3231   */\n      swap1\n      pop\n        /* \"#utility.yul\":3241:3312   */\n      tag_96\n        /* \"#utility.yul\":3309:3310   */\n      0x00\n        /* \"#utility.yul\":3298:3307   */\n      dup4\n        /* \"#utility.yul\":3294:3311   */\n      add\n        /* \"#utility.yul\":3285:3291   */\n      dup6\n        /* \"#utility.yul\":3241:3312   */\n      tag_60\n      jump\t// in\n    tag_96:\n        /* \"#utility.yul\":3322:3394   */\n      tag_97\n        /* \"#utility.yul\":3390:3392   */\n      0x20\n        /* \"#utility.yul\":3379:3388   */\n      dup4\n        /* \"#utility.yul\":3375:3393   */\n      add\n        /* \"#utility.yul\":3366:3372   */\n      dup5\n        /* \"#utility.yul\":3322:3394   */\n      tag_49\n      jump\t// in\n    tag_97:\n        /* \"#utility.yul\":3069:3401   */\n      swap4\n      swap3\n      pop\n      pop\n      pop\n      jump\t// out\n        /* \"#utility.yul\":3407:3587   */\n    tag_61:\n        /* \"#utility.yul\":3455:3532   */\n      0x4e487b7100000000000000000000000000000000000000000000000000000000\n        /* \"#utility.yul\":3452:3453   */\n      0x00\n        /* \"#utility.yul\":3445:3533   */\n      mstore\n        /* \"#utility.yul\":3552:3556   */\n      0x11\n        /* \"#utility.yul\":3549:3550   */\n      0x04\n        /* \"#utility.yul\":3542:3557   */\n      mstore\n        /* \"#utility.yul\":3576:3580   */\n      0x24\n        /* \"#utility.yul\":3573:3574   */\n      0x00\n        /* \"#utility.yul\":3566:3581   */\n      revert\n        /* \"#utility.yul\":3593:3784   */\n    tag_44:\n        /* \"#utility.yul\":3633:3636   */\n      0x00\n        /* \"#utility.yul\":3652:3672   */\n      tag_100\n        /* \"#utility.yul\":3670:3671   */\n      dup3\n        /* \"#utility.yul\":3652:3672   */\n      tag_48\n      jump\t// in\n    tag_100:\n        /* \"#utility.yul\":3647:3672   */\n      swap2\n      pop\n        /* \"#utility.yul\":3686:3706   */\n      tag_101\n        /* \"#utility.yul\":3704:3705   */\n      dup4\n        /* \"#utility.yul\":3686:3706   */\n      tag_48\n      jump\t// in\n    tag_101:\n        /* \"#utility.yul\":3681:3706   */\n      swap3\n      pop\n        /* \"#utility.yul\":3729:3730   */\n      dup3\n        /* \"#utility.yul\":3726:3727   */\n      dup3\n        /* \"#utility.yul\":3722:3731   */\n      add\n        /* \"#utility.yul\":3715:3731   */\n      swap1\n      pop\n        /* \"#utility.yul\":3750:3753   */\n      dup1\n        /* \"#utility.yul\":3747:3748   */\n      dup3\n        /* \"#utility.yul\":3744:3754   */\n      gt\n        /* \"#utility.yul\":3741:3777   */\n      iszero\n      tag_102\n      jumpi\n        /* \"#utility.yul\":3757:3775   */\n      tag_103\n      tag_61\n      jump\t// in\n    tag_103:\n        /* \"#utility.yul\":3741:3777   */\n    tag_102:\n        /* \"#utility.yul\":3593:3784   */\n      swap3\n      swap2\n      pop\n      pop\n      jump\t// out\n        /* \"#utility.yul\":3790:3959   */\n    tag_62:\n        /* \"#utility.yul\":3930:3951   */\n      0x69206d757374206c657373207468616e20313000000000000000000000000000\n        /* \"#utility.yul\":3926:3927   */\n      0x00\n        /* \"#utility.yul\":3918:3924   */\n      dup3\n        /* \"#utility.yul\":3914:3928   */\n      add\n        /* \"#utility.yul\":3907:3952   */\n      mstore\n        /* \"#utility.yul\":3790:3959   */\n      pop\n      jump\t// out\n        /* \"#utility.yul\":3965:4331   */\n    tag_63:\n        /* \"#utility.yul\":4107:4110   */\n      0x00\n        /* \"#utility.yul\":4128:4195   */\n      tag_106\n        /* \"#utility.yul\":4192:4194   */\n      0x13\n        /* \"#utility.yul\":4187:4190   */\n      dup4\n        /* \"#utility.yul\":4128:4195   */\n      tag_55\n      jump\t// in\n    tag_106:\n        /* \"#utility.yul\":4121:4195   */\n      swap2\n      pop\n        /* \"#utility.yul\":4204:4297   */\n      tag_107\n        /* \"#utility.yul\":4293:4296   */\n      dup3\n        /* \"#utility.yul\":4204:4297   */\n      tag_62\n      jump\t// in\n    tag_107:\n        /* \"#utility.yul\":4322:4324   */\n      0x20\n        /* \"#utility.yul\":4317:4320   */\n      dup3\n        /* \"#utility.yul\":4313:4325   */\n      add\n        /* \"#utility.yul\":4306:4325   */\n      swap1\n      pop\n        /* \"#utility.yul\":3965:4331   */\n      swap2\n      swap1\n      pop\n      jump\t// out\n        /* \"#utility.yul\":4337:4756   */\n    tag_47:\n        /* \"#utility.yul\":4503:4507   */\n      0x00\n        /* \"#utility.yul\":4541:4543   */\n      0x20\n        /* \"#utility.yul\":4530:4539   */\n      dup3\n        /* \"#utility.yul\":4526:4544   */\n      add\n        /* \"#utility.yul\":4518:4544   */\n      swap1\n      pop\n        /* \"#utility.yul\":4590:4599   */\n      dup2\n        /* \"#utility.yul\":4584:4588   */\n      dup2\n        /* \"#utility.yul\":4580:4600   */\n      sub\n        /* \"#utility.yul\":4576:4577   */\n      0x00\n        /* \"#utility.yul\":4565:4574   */\n      dup4\n        /* \"#utility.yul\":4561:4578   */\n      add\n        /* \"#utility.yul\":4554:4601   */\n      mstore\n        /* \"#utility.yul\":4618:4749   */\n      tag_109\n        /* \"#utility.yul\":4744:4748   */\n      dup2\n        /* \"#utility.yul\":4618:4749   */\n      tag_63\n      jump\t// in\n    tag_109:\n        /* \"#utility.yul\":4610:4749   */\n      swap1\n      pop\n        /* \"#utility.yul\":4337:4756   */\n      swap2\n      swap1\n      pop\n      jump\t// out\n\n    auxdata: 0xa2646970667358221220f407cf3e07689a2c985850f205ca64c74bd2fc8ed2009766bf9238f21fb0e2d764736f6c634300081a0033\n}\n",
				"bytecode": {
					"linkReferences": {},
					"object": "608060405260015f553480156012575f80fd5b506104cd806100205f395ff3fe608060405234801561000f575f80fd5b5060043610610060575f3560e01c80630dbe671f1461006457806320987767146100825780632b813bc01461009e5780637d5f3b35146100a8578063b8bd717f146100c4578063c2985578146100e0575b5f80fd5b61006c6100ea565b6040516100799190610252565b60405180910390f35b61009c60048036038101906100979190610299565b6100ef565b005b6100a6610136565b005b6100c260048036038101906100bd9190610299565b61014b565b005b6100de60048036038101906100d99190610299565b610196565b005b6100e86101dc565b005b5f5481565b600a811115610133576040517f08c379a000000000000000000000000000000000000000000000000000000000815260040161012a9061031e565b60405180910390fd5b50565b6104d15f54146101495761014861033c565b5b565b600a8111156101935733816040517fe2399bb800000000000000000000000000000000000000000000000000000000815260040161018a9291906103a8565b60405180910390fd5b50565b600a81106101d9576040517f08c379a00000000000000000000000000000000000000000000000000000000081526004016101d09061031e565b60405180910390fd5b50565b60015f808282546101ed91906103fc565b92505081905550600a5f5410610238576040517f08c379a000000000000000000000000000000000000000000000000000000000815260040161022f90610479565b60405180910390fd5b565b5f819050919050565b61024c8161023a565b82525050565b5f6020820190506102655f830184610243565b92915050565b5f80fd5b6102788161023a565b8114610282575f80fd5b50565b5f813590506102938161026f565b92915050565b5f602082840312156102ae576102ad61026b565b5b5f6102bb84828501610285565b91505092915050565b5f82825260208201905092915050565b7f5f69206d757374206c657373207468616e2031300000000000000000000000005f82015250565b5f6103086014836102c4565b9150610313826102d4565b602082019050919050565b5f6020820190508181035f830152610335816102fc565b9050919050565b7f4e487b71000000000000000000000000000000000000000000000000000000005f52600160045260245ffd5b5f73ffffffffffffffffffffffffffffffffffffffff82169050919050565b5f61039282610369565b9050919050565b6103a281610388565b82525050565b5f6040820190506103bb5f830185610399565b6103c86020830184610243565b9392505050565b7f4e487b71000000000000000000000000000000000000000000000000000000005f52601160045260245ffd5b5f6104068261023a565b91506104118361023a565b9250828201905080821115610429576104286103cf565b5b92915050565b7f69206d757374206c657373207468616e203130000000000000000000000000005f82015250565b5f6104636013836102c4565b915061046e8261042f565b602082019050919050565b5f6020820190508181035f83015261049081610457565b905091905056fea2646970667358221220f407cf3e07689a2c985850f205ca64c74bd2fc8ed2009766bf9238f21fb0e2d764736f6c634300081a0033",
					"opcodes": "PUSH1 0x80 PUSH1 0x40 MSTORE PUSH1 0x1 PUSH0 SSTORE CALLVALUE DUP1 ISZERO PUSH1 0x12 JUMPI PUSH0 DUP1 REVERT JUMPDEST POP PUSH2 0x4CD DUP1 PUSH2 0x20 PUSH0 CODECOPY PUSH0 RETURN INVALID PUSH1 0x80 PUSH1 0x40 MSTORE CALLVALUE DUP1 ISZERO PUSH2 0xF JUMPI PUSH0 DUP1 REVERT JUMPDEST POP PUSH1 0x4 CALLDATASIZE LT PUSH2 0x60 JUMPI PUSH0 CALLDATALOAD PUSH1 0xE0 SHR DUP1 PUSH4 0xDBE671F EQ PUSH2 0x64 JUMPI DUP1 PUSH4 0x20987767 EQ PUSH2 0x82 JUMPI DUP1 PUSH4 0x2B813BC0 EQ PUSH2 0x9E JUMPI DUP1 PUSH4 0x7D5F3B35 EQ PUSH2 0xA8 JUMPI DUP1 PUSH4 0xB8BD717F EQ PUSH2 0xC4 JUMPI DUP1 PUSH4 0xC2985578 EQ PUSH2 0xE0 JUMPI JUMPDEST PUSH0 DUP1 REVERT JUMPDEST PUSH2 0x6C PUSH2 0xEA JUMP JUMPDEST PUSH1 0x40 MLOAD PUSH2 0x79 SWAP2 SWAP1 PUSH2 0x252 JUMP JUMPDEST PUSH1 0x40 MLOAD DUP1 SWAP2 SUB SWAP1 RETURN JUMPDEST PUSH2 0x9C PUSH1 0x4 DUP1 CALLDATASIZE SUB DUP2 ADD SWAP1 PUSH2 0x97 SWAP2 SWAP1 PUSH2 0x299 JUMP JUMPDEST PUSH2 0xEF JUMP JUMPDEST STOP JUMPDEST PUSH2 0xA6 PUSH2 0x136 JUMP JUMPDEST STOP JUMPDEST PUSH2 0xC2 PUSH1 0x4 DUP1 CALLDATASIZE SUB DUP2 ADD SWAP1 PUSH2 0xBD SWAP2 SWAP1 PUSH2 0x299 JUMP JUMPDEST PUSH2 0x14B JUMP JUMPDEST STOP JUMPDEST PUSH2 0xDE PUSH1 0x4 DUP1 CALLDATASIZE SUB DUP2 ADD SWAP1 PUSH2 0xD9 SWAP2 SWAP1 PUSH2 0x299 JUMP JUMPDEST PUSH2 0x196 JUMP JUMPDEST STOP JUMPDEST PUSH2 0xE8 PUSH2 0x1DC JUMP JUMPDEST STOP JUMPDEST PUSH0 SLOAD DUP2 JUMP JUMPDEST PUSH1 0xA DUP2 GT ISZERO PUSH2 0x133 JUMPI PUSH1 0x40 MLOAD PUSH32 0x8C379A000000000000000000000000000000000000000000000000000000000 DUP2 MSTORE PUSH1 0x4 ADD PUSH2 0x12A SWAP1 PUSH2 0x31E JUMP JUMPDEST PUSH1 0x40 MLOAD DUP1 SWAP2 SUB SWAP1 REVERT JUMPDEST POP JUMP JUMPDEST PUSH2 0x4D1 PUSH0 SLOAD EQ PUSH2 0x149 JUMPI PUSH2 0x148 PUSH2 0x33C JUMP JUMPDEST JUMPDEST JUMP JUMPDEST PUSH1 0xA DUP2 GT ISZERO PUSH2 0x193 JUMPI CALLER DUP2 PUSH1 0x40 MLOAD PUSH32 0xE2399BB800000000000000000000000000000000000000000000000000000000 DUP2 MSTORE PUSH1 0x4 ADD PUSH2 0x18A SWAP3 SWAP2 SWAP1 PUSH2 0x3A8 JUMP JUMPDEST PUSH1 0x40 MLOAD DUP1 SWAP2 SUB SWAP1 REVERT JUMPDEST POP JUMP JUMPDEST PUSH1 0xA DUP2 LT PUSH2 0x1D9 JUMPI PUSH1 0x40 MLOAD PUSH32 0x8C379A000000000000000000000000000000000000000000000000000000000 DUP2 MSTORE PUSH1 0x4 ADD PUSH2 0x1D0 SWAP1 PUSH2 0x31E JUMP JUMPDEST PUSH1 0x40 MLOAD DUP1 SWAP2 SUB SWAP1 REVERT JUMPDEST POP JUMP JUMPDEST PUSH1 0x1 PUSH0 DUP1 DUP3 DUP3 SLOAD PUSH2 0x1ED SWAP2 SWAP1 PUSH2 0x3FC JUMP JUMPDEST SWAP3 POP POP DUP2 SWAP1 SSTORE POP PUSH1 0xA PUSH0 SLOAD LT PUSH2 0x238 JUMPI PUSH1 0x40 MLOAD PUSH32 0x8C379A000000000000000000000000000000000000000000000000000000000 DUP2 MSTORE PUSH1 0x4 ADD PUSH2 0x22F SWAP1 PUSH2 0x479 JUMP JUMPDEST PUSH1 0x40 MLOAD DUP1 SWAP2 SUB SWAP1 REVERT JUMPDEST JUMP JUMPDEST PUSH0 DUP2 SWAP1 POP SWAP2 SWAP1 POP JUMP JUMPDEST PUSH2 0x24C DUP2 PUSH2 0x23A JUMP JUMPDEST DUP3 MSTORE POP POP JUMP JUMPDEST PUSH0 PUSH1 0x20 DUP3 ADD SWAP1 POP PUSH2 0x265 PUSH0 DUP4 ADD DUP5 PUSH2 0x243 JUMP JUMPDEST SWAP3 SWAP2 POP POP JUMP JUMPDEST PUSH0 DUP1 REVERT JUMPDEST PUSH2 0x278 DUP2 PUSH2 0x23A JUMP JUMPDEST DUP2 EQ PUSH2 0x282 JUMPI PUSH0 DUP1 REVERT JUMPDEST POP JUMP JUMPDEST PUSH0 DUP2 CALLDATALOAD SWAP1 POP PUSH2 0x293 DUP2 PUSH2 0x26F JUMP JUMPDEST SWAP3 SWAP2 POP POP JUMP JUMPDEST PUSH0 PUSH1 0x20 DUP3 DUP5 SUB SLT ISZERO PUSH2 0x2AE JUMPI PUSH2 0x2AD PUSH2 0x26B JUMP JUMPDEST JUMPDEST PUSH0 PUSH2 0x2BB DUP5 DUP3 DUP6 ADD PUSH2 0x285 JUMP JUMPDEST SWAP2 POP POP SWAP3 SWAP2 POP POP JUMP JUMPDEST PUSH0 DUP3 DUP3 MSTORE PUSH1 0x20 DUP3 ADD SWAP1 POP SWAP3 SWAP2 POP POP JUMP JUMPDEST PUSH32 0x5F69206D757374206C657373207468616E203130000000000000000000000000 PUSH0 DUP3 ADD MSTORE POP JUMP JUMPDEST PUSH0 PUSH2 0x308 PUSH1 0x14 DUP4 PUSH2 0x2C4 JUMP JUMPDEST SWAP2 POP PUSH2 0x313 DUP3 PUSH2 0x2D4 JUMP JUMPDEST PUSH1 0x20 DUP3 ADD SWAP1 POP SWAP2 SWAP1 POP JUMP JUMPDEST PUSH0 PUSH1 0x20 DUP3 ADD SWAP1 POP DUP2 DUP2 SUB PUSH0 DUP4 ADD MSTORE PUSH2 0x335 DUP2 PUSH2 0x2FC JUMP JUMPDEST SWAP1 POP SWAP2 SWAP1 POP JUMP JUMPDEST PUSH32 0x4E487B7100000000000000000000000000000000000000000000000000000000 PUSH0 MSTORE PUSH1 0x1 PUSH1 0x4 MSTORE PUSH1 0x24 PUSH0 REVERT JUMPDEST PUSH0 PUSH20 0xFFFFFFFFFFFFFFFFFFFFFFFFFFFFFFFFFFFFFFFF DUP3 AND SWAP1 POP SWAP2 SWAP1 POP JUMP JUMPDEST PUSH0 PUSH2 0x392 DUP3 PUSH2 0x369 JUMP JUMPDEST SWAP1 POP SWAP2 SWAP1 POP JUMP JUMPDEST PUSH2 0x3A2 DUP2 PUSH2 0x388 JUMP JUMPDEST DUP3 MSTORE POP POP JUMP JUMPDEST PUSH0 PUSH1 0x40 DUP3 ADD SWAP1 POP PUSH2 0x3BB PUSH0 DUP4 ADD DUP6 PUSH2 0x399 JUMP JUMPDEST PUSH2 0x3C8 PUSH1 0x20 DUP4 ADD DUP5 PUSH2 0x243 JUMP JUMPDEST SWAP4 SWAP3 POP POP POP JUMP JUMPDEST PUSH32 0x4E487B7100000000000000000000000000000000000000000000000000000000 PUSH0 MSTORE PUSH1 0x11 PUSH1 0x4 MSTORE PUSH1 0x24 PUSH0 REVERT JUMPDEST PUSH0 PUSH2 0x406 DUP3 PUSH2 0x23A JUMP JUMPDEST SWAP2 POP PUSH2 0x411 DUP4 PUSH2 0x23A JUMP JUMPDEST SWAP3 POP DUP3 DUP3 ADD SWAP1 POP DUP1 DUP3 GT ISZERO PUSH2 0x429 JUMPI PUSH2 0x428 PUSH2 0x3CF JUMP JUMPDEST JUMPDEST SWAP3 SWAP2 POP POP JUMP JUMPDEST PUSH32 0x69206D757374206C657373207468616E20313000000000000000000000000000 PUSH0 DUP3 ADD MSTORE POP JUMP JUMPDEST PUSH0 PUSH2 0x463 PUSH1 0x13 DUP4 PUSH2 0x2C4 JUMP JUMPDEST SWAP2 POP PUSH2 0x46E DUP3 PUSH2 0x42F JUMP JUMPDEST PUSH1 0x20 DUP3 ADD SWAP1 POP SWAP2 SWAP1 POP JUMP JUMPDEST PUSH0 PUSH1 0x20 DUP3 ADD SWAP1 POP DUP2 DUP2 SUB PUSH0 DUP4 ADD MSTORE PUSH2 0x490 DUP2 PUSH2 0x457 JUMP JUMPDEST SWAP1 POP SWAP2 SWAP1 POP JUMP INVALID LOG2 PUSH5 0x6970667358 0x22 SLT KECCAK256 DELEGATECALL SMOD 0xCF RETURNDATACOPY SMOD PUSH9 0x9A2C985850F205CA64 0xC7 0x4B 0xD2 0xFC DUP15 0xD2 STOP SWAP8 PUSH7 0xBF9238F21FB0E2 0xD7 PUSH5 0x736F6C6343 STOP ADDMOD BYTE STOP CALLER "
				},
				"gasEstimates": {
					"creation": {
						"codeDepositCost": "245800",
						"executionCost": "22390",
						"totalCost": "268190"
					},
					"external": {
						"a()": "2402",
						"foo()": "infinite",
						"foo2(uint256)": "infinite",
						"testAssert()": "2314",
						"testRequire(uint256)": "772",
						"testRevert(uint256)": "709"
					}
				},
				"methodIdentifiers": {
					"a()": "0dbe671f",
					"foo()": "c2985578",
					"foo2(uint256)": "7d5f3b35",
					"testAssert()": "2b813bc0",
					"testRequire(uint256)": "b8bd717f",
					"testRevert(uint256)": "20987767"
				}
			},
			"storageLayout": {
				"storage": [
					{
						"astId": 106,
						"contract": "contracts/HelloWord.sol:Errors",
						"label": "a",
						"offset": 0,
						"slot": "0",
						"type": "t_uint256"
					}
				],
				"types": {
					"t_uint256": {
						"encoding": "inplace",
						"label": "uint256",
						"numberOfBytes": "32"
					}
				}
			},
			"userdoc": {
				"kind": "user",
				"methods": {},
				"version": 1
			}
		}
	}
}