{
	"contracts/HelloWord.sol": {
		"ValuesTypes": {
			"abi": [
				{
					"inputs": [],
					"name": "a1",
					"outputs": [
						{
							"internalType": "address",
							"name": "",
							"type": "address"
						}
					],
					"stateMutability": "view",
					"type": "function"
				},
				{
					"inputs": [],
					"name": "aaa",
					"outputs": [
						{
							"internalType": "uint256",
							"name": "",
							"type": "uint256"
						}
					],
					"stateMutability": "view",
					"type": "function"
				},
				{
					"inputs": [
						{
							"internalType": "uint256",
							"name": "x",
							"type": "uint256"
						},
						{
							"internalType": "uint256",
							"name": "y",
							"type": "uint256"
						}
					],
					"name": "add",
					"outputs": [
						{
							"internalType": "uint256",
							"name": "",
							"type": "uint256"
						}
					],
					"stateMutability": "pure",
					"type": "function"
				},
				{
					"inputs": [],
					"name": "foo",
					"outputs": [],
					"stateMutability": "nonpayable",
					"type": "function"
				},
				{
					"inputs": [],
					"name": "foo2",
					"outputs": [
						{
							"internalType": "address",
							"name": "",
							"type": "address"
						},
						{
							"internalType": "uint256",
							"name": "",
							"type": "uint256"
						},
						{
							"internalType": "uint256",
							"name": "",
							"type": "uint256"
						}
					],
					"stateMutability": "view",
					"type": "function"
				},
				{
					"inputs": [],
					"name": "iii",
					"outputs": [
						{
							"internalType": "int256",
							"name": "",
							"type": "int256"
						}
					],
					"stateMutability": "view",
					"type": "function"
				},
				{
					"inputs": [],
					"name": "mState",
					"outputs": [
						{
							"internalType": "uint256",
							"name": "",
							"type": "uint256"
						}
					],
					"stateMutability": "view",
					"type": "function"
				},
				{
					"inputs": [],
					"name": "num",
					"outputs": [
						{
							"internalType": "uint256",
							"name": "",
							"type": "uint256"
						}
					],
					"stateMutability": "view",
					"type": "function"
				},
				{
					"inputs": [
						{
							"internalType": "uint256",
							"name": "x",
							"type": "uint256"
						},
						{
							"internalType": "uint256",
							"name": "y",
							"type": "uint256"
						}
					],
					"name": "sub",
					"outputs": [
						{
							"internalType": "uint256",
							"name": "",
							"type": "uint256"
						}
					],
					"stateMutability": "pure",
					"type": "function"
				}
			],
			"devdoc": {
				"kind": "dev",
				"methods": {},
				"version": 1
			},
			"evm": {
				"assembly": "    /* \"contracts/HelloWord.sol\":1723:2475  contract ValuesTypes {... */\n  mstore(0x40, 0x80)\n    /* \"contracts/HelloWord.sol\":1794:1797  123 */\n  0x7b\n    /* \"contracts/HelloWord.sol\":1776:1797  uint public num = 123 */\n  0x01\n  sstore\n    /* \"contracts/HelloWord.sol\":1820:1823  -11 */\n  0xfffffffffffffffffffffffffffffffffffffffffffffffffffffffffffffff5\n    /* \"contracts/HelloWord.sol\":1803:1823  int public iii = -11 */\n  0x02\n  sstore\n    /* \"contracts/HelloWord.sol\":1723:2475  contract ValuesTypes {... */\n  callvalue\n  dup1\n  iszero\n  tag_1\n  jumpi\n  0x00\n  dup1\n  revert\ntag_1:\n  pop\n  dataSize(sub_0)\n  dup1\n  dataOffset(sub_0)\n  0x00\n  codecopy\n  0x00\n  return\nstop\n\nsub_0: assembly {\n        /* \"contracts/HelloWord.sol\":1723:2475  contract ValuesTypes {... */\n      mstore(0x40, 0x80)\n      callvalue\n      dup1\n      iszero\n      tag_1\n      jumpi\n      0x00\n      dup1\n      revert\n    tag_1:\n      pop\n      jumpi(tag_2, lt(calldatasize, 0x04))\n      shr(0xe0, calldataload(0x00))\n      dup1\n      0x771602f7\n      gt\n      tag_12\n      jumpi\n      dup1\n      0x771602f7\n      eq\n      tag_7\n      jumpi\n      dup1\n      0x937c0d0a\n      eq\n      tag_8\n      jumpi\n      dup1\n      0xb67d77c5\n      eq\n      tag_9\n      jumpi\n      dup1\n      0xc2985578\n      eq\n      tag_10\n      jumpi\n      dup1\n      0xe8ebf3c5\n      eq\n      tag_11\n      jumpi\n      jump(tag_2)\n    tag_12:\n      dup1\n      0x05f1e05f\n      eq\n      tag_3\n      jumpi\n      dup1\n      0x119552a1\n      eq\n      tag_4\n      jumpi\n      dup1\n      0x3d3430ff\n      eq\n      tag_5\n      jumpi\n      dup1\n      0x4e70b1dc\n      eq\n      tag_6\n      jumpi\n    tag_2:\n      0x00\n      dup1\n      revert\n        /* \"contracts/HelloWord.sol\":1889:2119  function foo2() external view returns (address, uint, uint) {... */\n    tag_3:\n      tag_13\n      tag_14\n      jump\t// in\n    tag_13:\n      mload(0x40)\n      tag_15\n      swap4\n      swap3\n      swap2\n      swap1\n      tag_16\n      jump\t// in\n    tag_15:\n      mload(0x40)\n      dup1\n      swap2\n      sub\n      swap1\n      return\n        /* \"contracts/HelloWord.sol\":1829:1846  address public a1 */\n    tag_4:\n      tag_17\n      tag_18\n      jump\t// in\n    tag_17:\n      mload(0x40)\n      tag_19\n      swap2\n      swap1\n      tag_20\n      jump\t// in\n    tag_19:\n      mload(0x40)\n      dup1\n      swap2\n      sub\n      swap1\n      return\n        /* \"contracts/HelloWord.sol\":1751:1769  uint public mState */\n    tag_5:\n      tag_21\n      tag_22\n      jump\t// in\n    tag_21:\n      mload(0x40)\n      tag_23\n      swap2\n      swap1\n      tag_24\n      jump\t// in\n    tag_23:\n      mload(0x40)\n      dup1\n      swap2\n      sub\n      swap1\n      return\n        /* \"contracts/HelloWord.sol\":1776:1797  uint public num = 123 */\n    tag_6:\n      tag_25\n      tag_26\n      jump\t// in\n    tag_25:\n      mload(0x40)\n      tag_27\n      swap2\n      swap1\n      tag_24\n      jump\t// in\n    tag_27:\n      mload(0x40)\n      dup1\n      swap2\n      sub\n      swap1\n      return\n        /* \"contracts/HelloWord.sol\":2286:2373  function add(uint x, uint y) external pure returns(uint) { ... */\n    tag_7:\n      tag_28\n      0x04\n      dup1\n      calldatasize\n      sub\n      dup2\n      add\n      swap1\n      tag_29\n      swap2\n      swap1\n      tag_30\n      jump\t// in\n    tag_29:\n      tag_31\n      jump\t// in\n    tag_28:\n      mload(0x40)\n      tag_32\n      swap2\n      swap1\n      tag_24\n      jump\t// in\n    tag_32:\n      mload(0x40)\n      dup1\n      swap2\n      sub\n      swap1\n      return\n        /* \"contracts/HelloWord.sol\":1852:1882  uint public constant aaa = 123 */\n    tag_8:\n      tag_33\n      tag_34\n      jump\t// in\n    tag_33:\n      mload(0x40)\n      tag_35\n      swap2\n      swap1\n      tag_24\n      jump\t// in\n    tag_35:\n      mload(0x40)\n      dup1\n      swap2\n      sub\n      swap1\n      return\n        /* \"contracts/HelloWord.sol\":2383:2470  function sub(uint x, uint y) external pure returns (uint) {... */\n    tag_9:\n      tag_36\n      0x04\n      dup1\n      calldatasize\n      sub\n      dup2\n      add\n      swap1\n      tag_37\n      swap2\n      swap1\n      tag_30\n      jump\t// in\n    tag_37:\n      tag_38\n      jump\t// in\n    tag_36:\n      mload(0x40)\n      tag_39\n      swap2\n      swap1\n      tag_24\n      jump\t// in\n    tag_39:\n      mload(0x40)\n      dup1\n      swap2\n      sub\n      swap1\n      return\n        /* \"contracts/HelloWord.sol\":2125:2280  function foo() external {... */\n    tag_10:\n      tag_40\n      tag_41\n      jump\t// in\n    tag_40:\n      stop\n        /* \"contracts/HelloWord.sol\":1803:1823  int public iii = -11 */\n    tag_11:\n      tag_42\n      tag_43\n      jump\t// in\n    tag_42:\n      mload(0x40)\n      tag_44\n      swap2\n      swap1\n      tag_45\n      jump\t// in\n    tag_44:\n      mload(0x40)\n      dup1\n      swap2\n      sub\n      swap1\n      return\n        /* \"contracts/HelloWord.sol\":1889:2119  function foo2() external view returns (address, uint, uint) {... */\n    tag_14:\n        /* \"contracts/HelloWord.sol\":1928:1935  address */\n      0x00\n        /* \"contracts/HelloWord.sol\":1937:1941  uint */\n      dup1\n        /* \"contracts/HelloWord.sol\":1943:1947  uint */\n      0x00\n        /* \"contracts/HelloWord.sol\":1959:1973  address sender */\n      dup1\n        /* \"contracts/HelloWord.sol\":1976:1986  msg.sender */\n      caller\n        /* \"contracts/HelloWord.sol\":1959:1986  address sender = msg.sender */\n      swap1\n      pop\n        /* \"contracts/HelloWord.sol\":1996:2010  uint timestamp */\n      0x00\n        /* \"contracts/HelloWord.sol\":2013:2028  block.timestamp */\n      timestamp\n        /* \"contracts/HelloWord.sol\":1996:2028  uint timestamp = block.timestamp */\n      swap1\n      pop\n        /* \"contracts/HelloWord.sol\":2038:2051  uint blockNum */\n      0x00\n        /* \"contracts/HelloWord.sol\":2054:2066  block.number */\n      number\n        /* \"contracts/HelloWord.sol\":2038:2066  uint blockNum = block.number */\n      swap1\n      pop\n        /* \"contracts/HelloWord.sol\":2084:2090  sender */\n      dup3\n        /* \"contracts/HelloWord.sol\":2092:2101  timestamp */\n      dup3\n        /* \"contracts/HelloWord.sol\":2103:2111  blockNum */\n      dup3\n        /* \"contracts/HelloWord.sol\":2076:2112  return (sender, timestamp, blockNum) */\n      swap6\n      pop\n      swap6\n      pop\n      swap6\n      pop\n      pop\n      pop\n      pop\n        /* \"contracts/HelloWord.sol\":1889:2119  function foo2() external view returns (address, uint, uint) {... */\n      swap1\n      swap2\n      swap3\n      jump\t// out\n        /* \"contracts/HelloWord.sol\":1829:1846  address public a1 */\n    tag_18:\n      0x03\n      0x00\n      swap1\n      sload\n      swap1\n      0x0100\n      exp\n      swap1\n      div\n      0xffffffffffffffffffffffffffffffffffffffff\n      and\n      dup2\n      jump\t// out\n        /* \"contracts/HelloWord.sol\":1751:1769  uint public mState */\n    tag_22:\n      sload(0x00)\n      dup2\n      jump\t// out\n        /* \"contracts/HelloWord.sol\":1776:1797  uint public num = 123 */\n    tag_26:\n      sload(0x01)\n      dup2\n      jump\t// out\n        /* \"contracts/HelloWord.sol\":2286:2373  function add(uint x, uint y) external pure returns(uint) { ... */\n    tag_31:\n        /* \"contracts/HelloWord.sol\":2337:2341  uint */\n      0x00\n        /* \"contracts/HelloWord.sol\":2365:2366  y */\n      dup2\n        /* \"contracts/HelloWord.sol\":2361:2362  x */\n      dup4\n        /* \"contracts/HelloWord.sol\":2361:2366  x + y */\n      tag_48\n      swap2\n      swap1\n      tag_49\n      jump\t// in\n    tag_48:\n        /* \"contracts/HelloWord.sol\":2354:2366  return x + y */\n      swap1\n      pop\n        /* \"contracts/HelloWord.sol\":2286:2373  function add(uint x, uint y) external pure returns(uint) { ... */\n      swap3\n      swap2\n      pop\n      pop\n      jump\t// out\n        /* \"contracts/HelloWord.sol\":1852:1882  uint public constant aaa = 123 */\n    tag_34:\n        /* \"contracts/HelloWord.sol\":1879:1882  123 */\n      0x7b\n        /* \"contracts/HelloWord.sol\":1852:1882  uint public constant aaa = 123 */\n      dup2\n      jump\t// out\n        /* \"contracts/HelloWord.sol\":2383:2470  function sub(uint x, uint y) external pure returns (uint) {... */\n    tag_38:\n        /* \"contracts/HelloWord.sol\":2435:2439  uint */\n      0x00\n        /* \"contracts/HelloWord.sol\":2462:2463  y */\n      dup2\n        /* \"contracts/HelloWord.sol\":2458:2459  x */\n      dup4\n        /* \"contracts/HelloWord.sol\":2458:2463  x - y */\n      tag_51\n      swap2\n      swap1\n      tag_52\n      jump\t// in\n    tag_51:\n        /* \"contracts/HelloWord.sol\":2451:2463  return x - y */\n      swap1\n      pop\n        /* \"contracts/HelloWord.sol\":2383:2470  function sub(uint x, uint y) external pure returns (uint) {... */\n      swap3\n      swap2\n      pop\n      pop\n      jump\t// out\n        /* \"contracts/HelloWord.sol\":2125:2280  function foo() external {... */\n    tag_41:\n        /* \"contracts/HelloWord.sol\":2159:2165  uint x */\n      0x00\n        /* \"contracts/HelloWord.sol\":2168:2170  88 */\n      0x58\n        /* \"contracts/HelloWord.sol\":2159:2170  uint x = 88 */\n      swap1\n      pop\n        /* \"contracts/HelloWord.sol\":2180:2186  bool f */\n      0x00\n        /* \"contracts/HelloWord.sol\":2209:2211  11 */\n      0x0b\n        /* \"contracts/HelloWord.sol\":2204:2211  x += 11 */\n      dup3\n      tag_54\n      swap2\n      swap1\n      tag_49\n      jump\t// in\n    tag_54:\n      swap2\n      pop\n        /* \"contracts/HelloWord.sol\":2225:2229  true */\n      0x01\n        /* \"contracts/HelloWord.sol\":2221:2229  f = true */\n      swap1\n      pop\n        /* \"contracts/HelloWord.sol\":2245:2248  123 */\n      0x7b\n        /* \"contracts/HelloWord.sol\":2239:2242  num */\n      0x01\n        /* \"contracts/HelloWord.sol\":2239:2248  num = 123 */\n      dup2\n      swap1\n      sstore\n      pop\n        /* \"contracts/HelloWord.sol\":2271:2272  1 */\n      0x01\n        /* \"contracts/HelloWord.sol\":2258:2260  a1 */\n      0x03\n      0x00\n        /* \"contracts/HelloWord.sol\":2258:2273  a1 = address(1) */\n      0x0100\n      exp\n      dup2\n      sload\n      dup2\n      0xffffffffffffffffffffffffffffffffffffffff\n      mul\n      not\n      and\n      swap1\n      dup4\n      0xffffffffffffffffffffffffffffffffffffffff\n      and\n      mul\n      or\n      swap1\n      sstore\n      pop\n        /* \"contracts/HelloWord.sol\":2149:2280  {... */\n      pop\n      pop\n        /* \"contracts/HelloWord.sol\":2125:2280  function foo() external {... */\n      jump\t// out\n        /* \"contracts/HelloWord.sol\":1803:1823  int public iii = -11 */\n    tag_43:\n      sload(0x02)\n      dup2\n      jump\t// out\n        /* \"#utility.yul\":7:133   */\n    tag_55:\n        /* \"#utility.yul\":44:51   */\n      0x00\n        /* \"#utility.yul\":84:126   */\n      0xffffffffffffffffffffffffffffffffffffffff\n        /* \"#utility.yul\":77:82   */\n      dup3\n        /* \"#utility.yul\":73:127   */\n      and\n        /* \"#utility.yul\":62:127   */\n      swap1\n      pop\n        /* \"#utility.yul\":7:133   */\n      swap2\n      swap1\n      pop\n      jump\t// out\n        /* \"#utility.yul\":139:235   */\n    tag_56:\n        /* \"#utility.yul\":176:183   */\n      0x00\n        /* \"#utility.yul\":205:229   */\n      tag_71\n        /* \"#utility.yul\":223:228   */\n      dup3\n        /* \"#utility.yul\":205:229   */\n      tag_55\n      jump\t// in\n    tag_71:\n        /* \"#utility.yul\":194:229   */\n      swap1\n      pop\n        /* \"#utility.yul\":139:235   */\n      swap2\n      swap1\n      pop\n      jump\t// out\n        /* \"#utility.yul\":241:359   */\n    tag_57:\n        /* \"#utility.yul\":328:352   */\n      tag_73\n        /* \"#utility.yul\":346:351   */\n      dup2\n        /* \"#utility.yul\":328:352   */\n      tag_56\n      jump\t// in\n    tag_73:\n        /* \"#utility.yul\":323:326   */\n      dup3\n        /* \"#utility.yul\":316:353   */\n      mstore\n        /* \"#utility.yul\":241:359   */\n      pop\n      pop\n      jump\t// out\n        /* \"#utility.yul\":365:442   */\n    tag_58:\n        /* \"#utility.yul\":402:409   */\n      0x00\n        /* \"#utility.yul\":431:436   */\n      dup2\n        /* \"#utility.yul\":420:436   */\n      swap1\n      pop\n        /* \"#utility.yul\":365:442   */\n      swap2\n      swap1\n      pop\n      jump\t// out\n        /* \"#utility.yul\":448:566   */\n    tag_59:\n        /* \"#utility.yul\":535:559   */\n      tag_76\n        /* \"#utility.yul\":553:558   */\n      dup2\n        /* \"#utility.yul\":535:559   */\n      tag_58\n      jump\t// in\n    tag_76:\n        /* \"#utility.yul\":530:533   */\n      dup3\n        /* \"#utility.yul\":523:560   */\n      mstore\n        /* \"#utility.yul\":448:566   */\n      pop\n      pop\n      jump\t// out\n        /* \"#utility.yul\":572:1014   */\n    tag_16:\n        /* \"#utility.yul\":721:725   */\n      0x00\n        /* \"#utility.yul\":759:761   */\n      0x60\n        /* \"#utility.yul\":748:757   */\n      dup3\n        /* \"#utility.yul\":744:762   */\n      add\n        /* \"#utility.yul\":736:762   */\n      swap1\n      pop\n        /* \"#utility.yul\":772:843   */\n      tag_78\n        /* \"#utility.yul\":840:841   */\n      0x00\n        /* \"#utility.yul\":829:838   */\n      dup4\n        /* \"#utility.yul\":825:842   */\n      add\n        /* \"#utility.yul\":816:822   */\n      dup7\n        /* \"#utility.yul\":772:843   */\n      tag_57\n      jump\t// in\n    tag_78:\n        /* \"#utility.yul\":853:925   */\n      tag_79\n        /* \"#utility.yul\":921:923   */\n      0x20\n        /* \"#utility.yul\":910:919   */\n      dup4\n        /* \"#utility.yul\":906:924   */\n      add\n        /* \"#utility.yul\":897:903   */\n      dup6\n        /* \"#utility.yul\":853:925   */\n      tag_59\n      jump\t// in\n    tag_79:\n        /* \"#utility.yul\":935:1007   */\n      tag_80\n        /* \"#utility.yul\":1003:1005   */\n      0x40\n        /* \"#utility.yul\":992:1001   */\n      dup4\n        /* \"#utility.yul\":988:1006   */\n      add\n        /* \"#utility.yul\":979:985   */\n      dup5\n        /* \"#utility.yul\":935:1007   */\n      tag_59\n      jump\t// in\n    tag_80:\n        /* \"#utility.yul\":572:1014   */\n      swap5\n      swap4\n      pop\n      pop\n      pop\n      pop\n      jump\t// out\n        /* \"#utility.yul\":1020:1242   */\n    tag_20:\n        /* \"#utility.yul\":1113:1117   */\n      0x00\n        /* \"#utility.yul\":1151:1153   */\n      0x20\n        /* \"#utility.yul\":1140:1149   */\n      dup3\n        /* \"#utility.yul\":1136:1154   */\n      add\n        /* \"#utility.yul\":1128:1154   */\n      swap1\n      pop\n        /* \"#utility.yul\":1164:1235   */\n      tag_82\n        /* \"#utility.yul\":1232:1233   */\n      0x00\n        /* \"#utility.yul\":1221:1230   */\n      dup4\n        /* \"#utility.yul\":1217:1234   */\n      add\n        /* \"#utility.yul\":1208:1214   */\n      dup5\n        /* \"#utility.yul\":1164:1235   */\n      tag_57\n      jump\t// in\n    tag_82:\n        /* \"#utility.yul\":1020:1242   */\n      swap3\n      swap2\n      pop\n      pop\n      jump\t// out\n        /* \"#utility.yul\":1248:1470   */\n    tag_24:\n        /* \"#utility.yul\":1341:1345   */\n      0x00\n        /* \"#utility.yul\":1379:1381   */\n      0x20\n        /* \"#utility.yul\":1368:1377   */\n      dup3\n        /* \"#utility.yul\":1364:1382   */\n      add\n        /* \"#utility.yul\":1356:1382   */\n      swap1\n      pop\n        /* \"#utility.yul\":1392:1463   */\n      tag_84\n        /* \"#utility.yul\":1460:1461   */\n      0x00\n        /* \"#utility.yul\":1449:1458   */\n      dup4\n        /* \"#utility.yul\":1445:1462   */\n      add\n        /* \"#utility.yul\":1436:1442   */\n      dup5\n        /* \"#utility.yul\":1392:1463   */\n      tag_59\n      jump\t// in\n    tag_84:\n        /* \"#utility.yul\":1248:1470   */\n      swap3\n      swap2\n      pop\n      pop\n      jump\t// out\n        /* \"#utility.yul\":1557:1674   */\n    tag_61:\n        /* \"#utility.yul\":1666:1667   */\n      0x00\n        /* \"#utility.yul\":1663:1664   */\n      dup1\n        /* \"#utility.yul\":1656:1668   */\n      revert\n        /* \"#utility.yul\":1803:1925   */\n    tag_63:\n        /* \"#utility.yul\":1876:1900   */\n      tag_89\n        /* \"#utility.yul\":1894:1899   */\n      dup2\n        /* \"#utility.yul\":1876:1900   */\n      tag_58\n      jump\t// in\n    tag_89:\n        /* \"#utility.yul\":1869:1874   */\n      dup2\n        /* \"#utility.yul\":1866:1901   */\n      eq\n        /* \"#utility.yul\":1856:1919   */\n      tag_90\n      jumpi\n        /* \"#utility.yul\":1915:1916   */\n      0x00\n        /* \"#utility.yul\":1912:1913   */\n      dup1\n        /* \"#utility.yul\":1905:1917   */\n      revert\n        /* \"#utility.yul\":1856:1919   */\n    tag_90:\n        /* \"#utility.yul\":1803:1925   */\n      pop\n      jump\t// out\n        /* \"#utility.yul\":1931:2070   */\n    tag_64:\n        /* \"#utility.yul\":1977:1982   */\n      0x00\n        /* \"#utility.yul\":2015:2021   */\n      dup2\n        /* \"#utility.yul\":2002:2022   */\n      calldataload\n        /* \"#utility.yul\":1993:2022   */\n      swap1\n      pop\n        /* \"#utility.yul\":2031:2064   */\n      tag_92\n        /* \"#utility.yul\":2058:2063   */\n      dup2\n        /* \"#utility.yul\":2031:2064   */\n      tag_63\n      jump\t// in\n    tag_92:\n        /* \"#utility.yul\":1931:2070   */\n      swap3\n      swap2\n      pop\n      pop\n      jump\t// out\n        /* \"#utility.yul\":2076:2550   */\n    tag_30:\n        /* \"#utility.yul\":2144:2150   */\n      0x00\n        /* \"#utility.yul\":2152:2158   */\n      dup1\n        /* \"#utility.yul\":2201:2203   */\n      0x40\n        /* \"#utility.yul\":2189:2198   */\n      dup4\n        /* \"#utility.yul\":2180:2187   */\n      dup6\n        /* \"#utility.yul\":2176:2199   */\n      sub\n        /* \"#utility.yul\":2172:2204   */\n      slt\n        /* \"#utility.yul\":2169:2288   */\n      iszero\n      tag_94\n      jumpi\n        /* \"#utility.yul\":2207:2286   */\n      tag_95\n      tag_61\n      jump\t// in\n    tag_95:\n        /* \"#utility.yul\":2169:2288   */\n    tag_94:\n        /* \"#utility.yul\":2327:2328   */\n      0x00\n        /* \"#utility.yul\":2352:2405   */\n      tag_96\n        /* \"#utility.yul\":2397:2404   */\n      dup6\n        /* \"#utility.yul\":2388:2394   */\n      dup3\n        /* \"#utility.yul\":2377:2386   */\n      dup7\n        /* \"#utility.yul\":2373:2395   */\n      add\n        /* \"#utility.yul\":2352:2405   */\n      tag_64\n      jump\t// in\n    tag_96:\n        /* \"#utility.yul\":2342:2405   */\n      swap3\n      pop\n        /* \"#utility.yul\":2298:2415   */\n      pop\n        /* \"#utility.yul\":2454:2456   */\n      0x20\n        /* \"#utility.yul\":2480:2533   */\n      tag_97\n        /* \"#utility.yul\":2525:2532   */\n      dup6\n        /* \"#utility.yul\":2516:2522   */\n      dup3\n        /* \"#utility.yul\":2505:2514   */\n      dup7\n        /* \"#utility.yul\":2501:2523   */\n      add\n        /* \"#utility.yul\":2480:2533   */\n      tag_64\n      jump\t// in\n    tag_97:\n        /* \"#utility.yul\":2470:2533   */\n      swap2\n      pop\n        /* \"#utility.yul\":2425:2543   */\n      pop\n        /* \"#utility.yul\":2076:2550   */\n      swap3\n      pop\n      swap3\n      swap1\n      pop\n      jump\t// out\n        /* \"#utility.yul\":2556:2632   */\n    tag_65:\n        /* \"#utility.yul\":2592:2599   */\n      0x00\n        /* \"#utility.yul\":2621:2626   */\n      dup2\n        /* \"#utility.yul\":2610:2626   */\n      swap1\n      pop\n        /* \"#utility.yul\":2556:2632   */\n      swap2\n      swap1\n      pop\n      jump\t// out\n        /* \"#utility.yul\":2638:2753   */\n    tag_66:\n        /* \"#utility.yul\":2723:2746   */\n      tag_100\n        /* \"#utility.yul\":2740:2745   */\n      dup2\n        /* \"#utility.yul\":2723:2746   */\n      tag_65\n      jump\t// in\n    tag_100:\n        /* \"#utility.yul\":2718:2721   */\n      dup3\n        /* \"#utility.yul\":2711:2747   */\n      mstore\n        /* \"#utility.yul\":2638:2753   */\n      pop\n      pop\n      jump\t// out\n        /* \"#utility.yul\":2759:2977   */\n    tag_45:\n        /* \"#utility.yul\":2850:2854   */\n      0x00\n        /* \"#utility.yul\":2888:2890   */\n      0x20\n        /* \"#utility.yul\":2877:2886   */\n      dup3\n        /* \"#utility.yul\":2873:2891   */\n      add\n        /* \"#utility.yul\":2865:2891   */\n      swap1\n      pop\n        /* \"#utility.yul\":2901:2970   */\n      tag_102\n        /* \"#utility.yul\":2967:2968   */\n      0x00\n        /* \"#utility.yul\":2956:2965   */\n      dup4\n        /* \"#utility.yul\":2952:2969   */\n      add\n        /* \"#utility.yul\":2943:2949   */\n      dup5\n        /* \"#utility.yul\":2901:2970   */\n      tag_66\n      jump\t// in\n    tag_102:\n        /* \"#utility.yul\":2759:2977   */\n      swap3\n      swap2\n      pop\n      pop\n      jump\t// out\n        /* \"#utility.yul\":2983:3163   */\n    tag_67:\n        /* \"#utility.yul\":3031:3108   */\n      0x4e487b7100000000000000000000000000000000000000000000000000000000\n        /* \"#utility.yul\":3028:3029   */\n      0x00\n        /* \"#utility.yul\":3021:3109   */\n      mstore\n        /* \"#utility.yul\":3128:3132   */\n      0x11\n        /* \"#utility.yul\":3125:3126   */\n      0x04\n        /* \"#utility.yul\":3118:3133   */\n      mstore\n        /* \"#utility.yul\":3152:3156   */\n      0x24\n        /* \"#utility.yul\":3149:3150   */\n      0x00\n        /* \"#utility.yul\":3142:3157   */\n      revert\n        /* \"#utility.yul\":3169:3360   */\n    tag_49:\n        /* \"#utility.yul\":3209:3212   */\n      0x00\n        /* \"#utility.yul\":3228:3248   */\n      tag_105\n        /* \"#utility.yul\":3246:3247   */\n      dup3\n        /* \"#utility.yul\":3228:3248   */\n      tag_58\n      jump\t// in\n    tag_105:\n        /* \"#utility.yul\":3223:3248   */\n      swap2\n      pop\n        /* \"#utility.yul\":3262:3282   */\n      tag_106\n        /* \"#utility.yul\":3280:3281   */\n      dup4\n        /* \"#utility.yul\":3262:3282   */\n      tag_58\n      jump\t// in\n    tag_106:\n        /* \"#utility.yul\":3257:3282   */\n      swap3\n      pop\n        /* \"#utility.yul\":3305:3306   */\n      dup3\n        /* \"#utility.yul\":3302:3303   */\n      dup3\n        /* \"#utility.yul\":3298:3307   */\n      add\n        /* \"#utility.yul\":3291:3307   */\n      swap1\n      pop\n        /* \"#utility.yul\":3326:3329   */\n      dup1\n        /* \"#utility.yul\":3323:3324   */\n      dup3\n        /* \"#utility.yul\":3320:3330   */\n      gt\n        /* \"#utility.yul\":3317:3353   */\n      iszero\n      tag_107\n      jumpi\n        /* \"#utility.yul\":3333:3351   */\n      tag_108\n      tag_67\n      jump\t// in\n    tag_108:\n        /* \"#utility.yul\":3317:3353   */\n    tag_107:\n        /* \"#utility.yul\":3169:3360   */\n      swap3\n      swap2\n      pop\n      pop\n      jump\t// out\n        /* \"#utility.yul\":3366:3560   */\n    tag_52:\n        /* \"#utility.yul\":3406:3410   */\n      0x00\n        /* \"#utility.yul\":3426:3446   */\n      tag_110\n        /* \"#utility.yul\":3444:3445   */\n      dup3\n        /* \"#utility.yul\":3426:3446   */\n      tag_58\n      jump\t// in\n    tag_110:\n        /* \"#utility.yul\":3421:3446   */\n      swap2\n      pop\n        /* \"#utility.yul\":3460:3480   */\n      tag_111\n        /* \"#utility.yul\":3478:3479   */\n      dup4\n        /* \"#utility.yul\":3460:3480   */\n      tag_58\n      jump\t// in\n    tag_111:\n        /* \"#utility.yul\":3455:3480   */\n      swap3\n      pop\n        /* \"#utility.yul\":3504:3505   */\n      dup3\n        /* \"#utility.yul\":3501:3502   */\n      dup3\n        /* \"#utility.yul\":3497:3506   */\n      sub\n        /* \"#utility.yul\":3489:3506   */\n      swap1\n      pop\n        /* \"#utility.yul\":3528:3529   */\n      dup2\n        /* \"#utility.yul\":3522:3526   */\n      dup2\n        /* \"#utility.yul\":3519:3530   */\n      gt\n        /* \"#utility.yul\":3516:3553   */\n      iszero\n      tag_112\n      jumpi\n        /* \"#utility.yul\":3533:3551   */\n      tag_113\n      tag_67\n      jump\t// in\n    tag_113:\n        /* \"#utility.yul\":3516:3553   */\n    tag_112:\n        /* \"#utility.yul\":3366:3560   */\n      swap3\n      swap2\n      pop\n      pop\n      jump\t// out\n\n    auxdata: 0xa264697066735822122076dc4c38342dea0205f487a7f42883a9e1bc37e53e179ecd6e6ca33e37f3a16b64736f6c634300081a0033\n}\n",
				"bytecode": {
					"linkReferences": {},
					"object": "6080604052607b6001557ffffffffffffffffffffffffffffffffffffffffffffffffffffffffffffffff56002553480156037575f80fd5b506104c4806100455f395ff3fe608060405234801561000f575f80fd5b5060043610610091575f3560e01c8063771602f711610064578063771602f71461010f578063937c0d0a1461013f578063b67d77c51461015d578063c29855781461018d578063e8ebf3c51461019757610091565b806305f1e05f14610095578063119552a1146100b55780633d3430ff146100d35780634e70b1dc146100f1575b5f80fd5b61009d6101b5565b6040516100ac939291906102f7565b60405180910390f35b6100bd6101d5565b6040516100ca919061032c565b60405180910390f35b6100db6101fa565b6040516100e89190610345565b60405180910390f35b6100f96101ff565b6040516101069190610345565b60405180910390f35b6101296004803603810190610124919061038c565b610205565b6040516101369190610345565b60405180910390f35b61014761021a565b6040516101549190610345565b60405180910390f35b6101776004803603810190610172919061038c565b61021f565b6040516101849190610345565b60405180910390f35b610195610234565b005b61019f61029a565b6040516101ac91906103e2565b60405180910390f35b5f805f803390505f4290505f439050828282955095509550505050909192565b60035f9054906101000a900473ffffffffffffffffffffffffffffffffffffffff1681565b5f5481565b60015481565b5f81836102129190610428565b905092915050565b607b81565b5f818361022c919061045b565b905092915050565b5f605890505f600b826102479190610428565b915060019050607b600181905550600160035f6101000a81548173ffffffffffffffffffffffffffffffffffffffff021916908373ffffffffffffffffffffffffffffffffffffffff1602179055505050565b60025481565b5f73ffffffffffffffffffffffffffffffffffffffff82169050919050565b5f6102c9826102a0565b9050919050565b6102d9816102bf565b82525050565b5f819050919050565b6102f1816102df565b82525050565b5f60608201905061030a5f8301866102d0565b61031760208301856102e8565b61032460408301846102e8565b949350505050565b5f60208201905061033f5f8301846102d0565b92915050565b5f6020820190506103585f8301846102e8565b92915050565b5f80fd5b61036b816102df565b8114610375575f80fd5b50565b5f8135905061038681610362565b92915050565b5f80604083850312156103a2576103a161035e565b5b5f6103af85828601610378565b92505060206103c085828601610378565b9150509250929050565b5f819050919050565b6103dc816103ca565b82525050565b5f6020820190506103f55f8301846103d3565b92915050565b7f4e487b71000000000000000000000000000000000000000000000000000000005f52601160045260245ffd5b5f610432826102df565b915061043d836102df565b9250828201905080821115610455576104546103fb565b5b92915050565b5f610465826102df565b9150610470836102df565b9250828203905081811115610488576104876103fb565b5b9291505056fea264697066735822122076dc4c38342dea0205f487a7f42883a9e1bc37e53e179ecd6e6ca33e37f3a16b64736f6c634300081a0033",
					"opcodes": "PUSH1 0x80 PUSH1 0x40 MSTORE PUSH1 0x7B PUSH1 0x1 SSTORE PUSH32 0xFFFFFFFFFFFFFFFFFFFFFFFFFFFFFFFFFFFFFFFFFFFFFFFFFFFFFFFFFFFFFFF5 PUSH1 0x2 SSTORE CALLVALUE DUP1 ISZERO PUSH1 0x37 JUMPI PUSH0 DUP1 REVERT JUMPDEST POP PUSH2 0x4C4 DUP1 PUSH2 0x45 PUSH0 CODECOPY PUSH0 RETURN INVALID PUSH1 0x80 PUSH1 0x40 MSTORE CALLVALUE DUP1 ISZERO PUSH2 0xF JUMPI PUSH0 DUP1 REVERT JUMPDEST POP PUSH1 0x4 CALLDATASIZE LT PUSH2 0x91 JUMPI PUSH0 CALLDATALOAD PUSH1 0xE0 SHR DUP1 PUSH4 0x771602F7 GT PUSH2 0x64 JUMPI DUP1 PUSH4 0x771602F7 EQ PUSH2 0x10F JUMPI DUP1 PUSH4 0x937C0D0A EQ PUSH2 0x13F JUMPI DUP1 PUSH4 0xB67D77C5 EQ PUSH2 0x15D JUMPI DUP1 PUSH4 0xC2985578 EQ PUSH2 0x18D JUMPI DUP1 PUSH4 0xE8EBF3C5 EQ PUSH2 0x197 JUMPI PUSH2 0x91 JUMP JUMPDEST DUP1 PUSH4 0x5F1E05F EQ PUSH2 0x95 JUMPI DUP1 PUSH4 0x119552A1 EQ PUSH2 0xB5 JUMPI DUP1 PUSH4 0x3D3430FF EQ PUSH2 0xD3 JUMPI DUP1 PUSH4 0x4E70B1DC EQ PUSH2 0xF1 JUMPI JUMPDEST PUSH0 DUP1 REVERT JUMPDEST PUSH2 0x9D PUSH2 0x1B5 JUMP JUMPDEST PUSH1 0x40 MLOAD PUSH2 0xAC SWAP4 SWAP3 SWAP2 SWAP1 PUSH2 0x2F7 JUMP JUMPDEST PUSH1 0x40 MLOAD DUP1 SWAP2 SUB SWAP1 RETURN JUMPDEST PUSH2 0xBD PUSH2 0x1D5 JUMP JUMPDEST PUSH1 0x40 MLOAD PUSH2 0xCA SWAP2 SWAP1 PUSH2 0x32C JUMP JUMPDEST PUSH1 0x40 MLOAD DUP1 SWAP2 SUB SWAP1 RETURN JUMPDEST PUSH2 0xDB PUSH2 0x1FA JUMP JUMPDEST PUSH1 0x40 MLOAD PUSH2 0xE8 SWAP2 SWAP1 PUSH2 0x345 JUMP JUMPDEST PUSH1 0x40 MLOAD DUP1 SWAP2 SUB SWAP1 RETURN JUMPDEST PUSH2 0xF9 PUSH2 0x1FF JUMP JUMPDEST PUSH1 0x40 MLOAD PUSH2 0x106 SWAP2 SWAP1 PUSH2 0x345 JUMP JUMPDEST PUSH1 0x40 MLOAD DUP1 SWAP2 SUB SWAP1 RETURN JUMPDEST PUSH2 0x129 PUSH1 0x4 DUP1 CALLDATASIZE SUB DUP2 ADD SWAP1 PUSH2 0x124 SWAP2 SWAP1 PUSH2 0x38C JUMP JUMPDEST PUSH2 0x205 JUMP JUMPDEST PUSH1 0x40 MLOAD PUSH2 0x136 SWAP2 SWAP1 PUSH2 0x345 JUMP JUMPDEST PUSH1 0x40 MLOAD DUP1 SWAP2 SUB SWAP1 RETURN JUMPDEST PUSH2 0x147 PUSH2 0x21A JUMP JUMPDEST PUSH1 0x40 MLOAD PUSH2 0x154 SWAP2 SWAP1 PUSH2 0x345 JUMP JUMPDEST PUSH1 0x40 MLOAD DUP1 SWAP2 SUB SWAP1 RETURN JUMPDEST PUSH2 0x177 PUSH1 0x4 DUP1 CALLDATASIZE SUB DUP2 ADD SWAP1 PUSH2 0x172 SWAP2 SWAP1 PUSH2 0x38C JUMP JUMPDEST PUSH2 0x21F JUMP JUMPDEST PUSH1 0x40 MLOAD PUSH2 0x184 SWAP2 SWAP1 PUSH2 0x345 JUMP JUMPDEST PUSH1 0x40 MLOAD DUP1 SWAP2 SUB SWAP1 RETURN JUMPDEST PUSH2 0x195 PUSH2 0x234 JUMP JUMPDEST STOP JUMPDEST PUSH2 0x19F PUSH2 0x29A JUMP JUMPDEST PUSH1 0x40 MLOAD PUSH2 0x1AC SWAP2 SWAP1 PUSH2 0x3E2 JUMP JUMPDEST PUSH1 0x40 MLOAD DUP1 SWAP2 SUB SWAP1 RETURN JUMPDEST PUSH0 DUP1 PUSH0 DUP1 CALLER SWAP1 POP PUSH0 TIMESTAMP SWAP1 POP PUSH0 NUMBER SWAP1 POP DUP3 DUP3 DUP3 SWAP6 POP SWAP6 POP SWAP6 POP POP POP POP SWAP1 SWAP2 SWAP3 JUMP JUMPDEST PUSH1 0x3 PUSH0 SWAP1 SLOAD SWAP1 PUSH2 0x100 EXP SWAP1 DIV PUSH20 0xFFFFFFFFFFFFFFFFFFFFFFFFFFFFFFFFFFFFFFFF AND DUP2 JUMP JUMPDEST PUSH0 SLOAD DUP2 JUMP JUMPDEST PUSH1 0x1 SLOAD DUP2 JUMP JUMPDEST PUSH0 DUP2 DUP4 PUSH2 0x212 SWAP2 SWAP1 PUSH2 0x428 JUMP JUMPDEST SWAP1 POP SWAP3 SWAP2 POP POP JUMP JUMPDEST PUSH1 0x7B DUP2 JUMP JUMPDEST PUSH0 DUP2 DUP4 PUSH2 0x22C SWAP2 SWAP1 PUSH2 0x45B JUMP JUMPDEST SWAP1 POP SWAP3 SWAP2 POP POP JUMP JUMPDEST PUSH0 PUSH1 0x58 SWAP1 POP PUSH0 PUSH1 0xB DUP3 PUSH2 0x247 SWAP2 SWAP1 PUSH2 0x428 JUMP JUMPDEST SWAP2 POP PUSH1 0x1 SWAP1 POP PUSH1 0x7B PUSH1 0x1 DUP2 SWAP1 SSTORE POP PUSH1 0x1 PUSH1 0x3 PUSH0 PUSH2 0x100 EXP DUP2 SLOAD DUP2 PUSH20 0xFFFFFFFFFFFFFFFFFFFFFFFFFFFFFFFFFFFFFFFF MUL NOT AND SWAP1 DUP4 PUSH20 0xFFFFFFFFFFFFFFFFFFFFFFFFFFFFFFFFFFFFFFFF AND MUL OR SWAP1 SSTORE POP POP POP JUMP JUMPDEST PUSH1 0x2 SLOAD DUP2 JUMP JUMPDEST PUSH0 PUSH20 0xFFFFFFFFFFFFFFFFFFFFFFFFFFFFFFFFFFFFFFFF DUP3 AND SWAP1 POP SWAP2 SWAP1 POP JUMP JUMPDEST PUSH0 PUSH2 0x2C9 DUP3 PUSH2 0x2A0 JUMP JUMPDEST SWAP1 POP SWAP2 SWAP1 POP JUMP JUMPDEST PUSH2 0x2D9 DUP2 PUSH2 0x2BF JUMP JUMPDEST DUP3 MSTORE POP POP JUMP JUMPDEST PUSH0 DUP2 SWAP1 POP SWAP2 SWAP1 POP JUMP JUMPDEST PUSH2 0x2F1 DUP2 PUSH2 0x2DF JUMP JUMPDEST DUP3 MSTORE POP POP JUMP JUMPDEST PUSH0 PUSH1 0x60 DUP3 ADD SWAP1 POP PUSH2 0x30A PUSH0 DUP4 ADD DUP7 PUSH2 0x2D0 JUMP JUMPDEST PUSH2 0x317 PUSH1 0x20 DUP4 ADD DUP6 PUSH2 0x2E8 JUMP JUMPDEST PUSH2 0x324 PUSH1 0x40 DUP4 ADD DUP5 PUSH2 0x2E8 JUMP JUMPDEST SWAP5 SWAP4 POP POP POP POP JUMP JUMPDEST PUSH0 PUSH1 0x20 DUP3 ADD SWAP1 POP PUSH2 0x33F PUSH0 DUP4 ADD DUP5 PUSH2 0x2D0 JUMP JUMPDEST SWAP3 SWAP2 POP POP JUMP JUMPDEST PUSH0 PUSH1 0x20 DUP3 ADD SWAP1 POP PUSH2 0x358 PUSH0 DUP4 ADD DUP5 PUSH2 0x2E8 JUMP JUMPDEST SWAP3 SWAP2 POP POP JUMP JUMPDEST PUSH0 DUP1 REVERT JUMPDEST PUSH2 0x36B DUP2 PUSH2 0x2DF JUMP JUMPDEST DUP2 EQ PUSH2 0x375 JUMPI PUSH0 DUP1 REVERT JUMPDEST POP JUMP JUMPDEST PUSH0 DUP2 CALLDATALOAD SWAP1 POP PUSH2 0x386 DUP2 PUSH2 0x362 JUMP JUMPDEST SWAP3 SWAP2 POP POP JUMP JUMPDEST PUSH0 DUP1 PUSH1 0x40 DUP4 DUP6 SUB SLT ISZERO PUSH2 0x3A2 JUMPI PUSH2 0x3A1 PUSH2 0x35E JUMP JUMPDEST JUMPDEST PUSH0 PUSH2 0x3AF DUP6 DUP3 DUP7 ADD PUSH2 0x378 JUMP JUMPDEST SWAP3 POP POP PUSH1 0x20 PUSH2 0x3C0 DUP6 DUP3 DUP7 ADD PUSH2 0x378 JUMP JUMPDEST SWAP2 POP POP SWAP3 POP SWAP3 SWAP1 POP JUMP JUMPDEST PUSH0 DUP2 SWAP1 POP SWAP2 SWAP1 POP JUMP JUMPDEST PUSH2 0x3DC DUP2 PUSH2 0x3CA JUMP JUMPDEST DUP3 MSTORE POP POP JUMP JUMPDEST PUSH0 PUSH1 0x20 DUP3 ADD SWAP1 POP PUSH2 0x3F5 PUSH0 DUP4 ADD DUP5 PUSH2 0x3D3 JUMP JUMPDEST SWAP3 SWAP2 POP POP JUMP JUMPDEST PUSH32 0x4E487B7100000000000000000000000000000000000000000000000000000000 PUSH0 MSTORE PUSH1 0x11 PUSH1 0x4 MSTORE PUSH1 0x24 PUSH0 REVERT JUMPDEST PUSH0 PUSH2 0x432 DUP3 PUSH2 0x2DF JUMP JUMPDEST SWAP2 POP PUSH2 0x43D DUP4 PUSH2 0x2DF JUMP JUMPDEST SWAP3 POP DUP3 DUP3 ADD SWAP1 POP DUP1 DUP3 GT ISZERO PUSH2 0x455 JUMPI PUSH2 0x454 PUSH2 0x3FB JUMP JUMPDEST JUMPDEST SWAP3 SWAP2 POP POP JUMP JUMPDEST PUSH0 PUSH2 0x465 DUP3 PUSH2 0x2DF JUMP JUMPDEST SWAP2 POP PUSH2 0x470 DUP4 PUSH2 0x2DF JUMP JUMPDEST SWAP3 POP DUP3 DUP3 SUB SWAP1 POP DUP2 DUP2 GT ISZERO PUSH2 0x488 JUMPI PUSH2 0x487 PUSH2 0x3FB JUMP JUMPDEST JUMPDEST SWAP3 SWAP2 POP POP JUMP INVALID LOG2 PUSH5 0x6970667358 0x22 SLT KECCAK256 PUSH23 0xDC4C38342DEA0205F487A7F42883A9E1BC37E53E179ECD PUSH15 0x6CA33E37F3A16B64736F6C63430008 BYTE STOP CALLER "
				},
				"gasEstimates": {
					"creation": {
						"codeDepositCost": "244000",
						"executionCost": "44497",
						"totalCost": "288497"
					},
					"external": {
						"a1()": "2531",
						"aaa()": "347",
						"add(uint256,uint256)": "infinite",
						"foo()": "infinite",
						"foo2()": "infinite",
						"iii()": "2513",
						"mState()": "2469",
						"num()": "2492",
						"sub(uint256,uint256)": "infinite"
					}
				},
				"methodIdentifiers": {
					"a1()": "119552a1",
					"aaa()": "937c0d0a",
					"add(uint256,uint256)": "771602f7",
					"foo()": "c2985578",
					"foo2()": "05f1e05f",
					"iii()": "e8ebf3c5",
					"mState()": "3d3430ff",
					"num()": "4e70b1dc",
					"sub(uint256,uint256)": "b67d77c5"
				}
			},
			"storageLayout": {
				"storage": [
					{
						"astId": 185,
						"contract": "contracts/HelloWord.sol:ValuesTypes",
						"label": "mState",
						"offset": 0,
						"slot": "0",
						"type": "t_uint256"
					},
					{
						"astId": 188,
						"contract": "contracts/HelloWord.sol:ValuesTypes",
						"label": "num",
						"offset": 0,
						"slot": "1",
						"type": "t_uint256"
					},
					{
						"astId": 192,
						"contract": "contracts/HelloWord.sol:ValuesTypes",
						"label": "iii",
						"offset": 0,
						"slot": "2",
						"type": "t_int256"
					},
					{
						"astId": 194,
						"contract": "contracts/HelloWord.sol:ValuesTypes",
						"label": "a1",
						"offset": 0,
						"slot": "3",
						"type": "t_address"
					}
				],
				"types": {
					"t_address": {
						"encoding": "inplace",
						"label": "address",
						"numberOfBytes": "20"
					},
					"t_int256": {
						"encoding": "inplace",
						"label": "int256",
						"numberOfBytes": "32"
					},
					"t_uint256": {
						"encoding": "inplace",
						"label": "uint256",
						"numberOfBytes": "32"
					}
				}
			},
			"userdoc": {
				"kind": "user",
				"methods": {},
				"version": 1
			}
		}
	}
}