{
	"data": {
		"bytecode": {
			"linkReferences": {},
			"object": "6080604052348015600e575f80fd5b506101968061001c5f395ff3fe608060405234801561000f575f80fd5b506004361061004a575f3560e01c80632e67bc1b1461004e5780633dece5111461006d578063868875441461008c578063d04110fd146100ab575b5f80fd5b6100566100b5565b604051610064929190610139565b60405180910390f35b6100756100c3565b604051610083929190610139565b60405180910390f35b6100946100d0565b6040516100a2929190610139565b60405180910390f35b6100b36100dd565b005b5f8060019150600190509091565b5f80600180915091509091565b5f80600180915091509091565b5f806100e76100d0565b91509150607b91505f90505f6100fb6100d0565b91505060019050505050565b5f819050919050565b61011981610107565b82525050565b5f8115159050919050565b6101338161011f565b82525050565b5f60408201905061014c5f830185610110565b610159602083018461012a565b939250505056fea264697066735822122022939606130e7488dd2009941daeeddc8106a6bcf02692e6b094a08e9f752a9964736f6c634300081a0033",
			"opcodes": "PUSH1 0x80 PUSH1 0x40 MSTORE CALLVALUE DUP1 ISZERO PUSH1 0xE JUMPI PUSH0 DUP1 REVERT JUMPDEST POP PUSH2 0x196 DUP1 PUSH2 0x1C PUSH0 CODECOPY PUSH0 RETURN INVALID PUSH1 0x80 PUSH1 0x40 MSTORE CALLVALUE DUP1 ISZERO PUSH2 0xF JUMPI PUSH0 DUP1 REVERT JUMPDEST POP PUSH1 0x4 CALLDATASIZE LT PUSH2 0x4A JUMPI PUSH0 CALLDATALOAD PUSH1 0xE0 SHR DUP1 PUSH4 0x2E67BC1B EQ PUSH2 0x4E JUMPI DUP1 PUSH4 0x3DECE511 EQ PUSH2 0x6D JUMPI DUP1 PUSH4 0x86887544 EQ PUSH2 0x8C JUMPI DUP1 PUSH4 0xD04110FD EQ PUSH2 0xAB JUMPI JUMPDEST PUSH0 DUP1 REVERT JUMPDEST PUSH2 0x56 PUSH2 0xB5 JUMP JUMPDEST PUSH1 0x40 MLOAD PUSH2 0x64 SWAP3 SWAP2 SWAP1 PUSH2 0x139 JUMP JUMPDEST PUSH1 0x40 MLOAD DUP1 SWAP2 SUB SWAP1 RETURN JUMPDEST PUSH2 0x75 PUSH2 0xC3 JUMP JUMPDEST PUSH1 0x40 MLOAD PUSH2 0x83 SWAP3 SWAP2 SWAP1 PUSH2 0x139 JUMP JUMPDEST PUSH1 0x40 MLOAD DUP1 SWAP2 SUB SWAP1 RETURN JUMPDEST PUSH2 0x94 PUSH2 0xD0 JUMP JUMPDEST PUSH1 0x40 MLOAD PUSH2 0xA2 SWAP3 SWAP2 SWAP1 PUSH2 0x139 JUMP JUMPDEST PUSH1 0x40 MLOAD DUP1 SWAP2 SUB SWAP1 RETURN JUMPDEST PUSH2 0xB3 PUSH2 0xDD JUMP JUMPDEST STOP JUMPDEST PUSH0 DUP1 PUSH1 0x1 SWAP2 POP PUSH1 0x1 SWAP1 POP SWAP1 SWAP2 JUMP JUMPDEST PUSH0 DUP1 PUSH1 0x1 DUP1 SWAP2 POP SWAP2 POP SWAP1 SWAP2 JUMP JUMPDEST PUSH0 DUP1 PUSH1 0x1 DUP1 SWAP2 POP SWAP2 POP SWAP1 SWAP2 JUMP JUMPDEST PUSH0 DUP1 PUSH2 0xE7 PUSH2 0xD0 JUMP JUMPDEST SWAP2 POP SWAP2 POP PUSH1 0x7B SWAP2 POP PUSH0 SWAP1 POP PUSH0 PUSH2 0xFB PUSH2 0xD0 JUMP JUMPDEST SWAP2 POP POP PUSH1 0x1 SWAP1 POP POP POP POP JUMP JUMPDEST PUSH0 DUP2 SWAP1 POP SWAP2 SWAP1 POP JUMP JUMPDEST PUSH2 0x119 DUP2 PUSH2 0x107 JUMP JUMPDEST DUP3 MSTORE POP POP JUMP JUMPDEST PUSH0 DUP2 ISZERO ISZERO SWAP1 POP SWAP2 SWAP1 POP JUMP JUMPDEST PUSH2 0x133 DUP2 PUSH2 0x11F JUMP JUMPDEST DUP3 MSTORE POP POP JUMP JUMPDEST PUSH0 PUSH1 0x40 DUP3 ADD SWAP1 POP PUSH2 0x14C PUSH0 DUP4 ADD DUP6 PUSH2 0x110 JUMP JUMPDEST PUSH2 0x159 PUSH1 0x20 DUP4 ADD DUP5 PUSH2 0x12A JUMP JUMPDEST SWAP4 SWAP3 POP POP POP JUMP INVALID LOG2 PUSH5 0x6970667358 0x22 SLT KECCAK256 0x22 SWAP4 SWAP7 MOD SGT 0xE PUSH21 0x88DD2009941DAEEDDC8106A6BCF02692E6B094A08E SWAP16 PUSH22 0x2A9964736F6C634300081A0033000000000000000000 "
		},
		"gasEstimates": {
			"creation": {
				"codeDepositCost": "81200",
				"executionCost": "127",
				"totalCost": "81327"
			},
			"external": {
				"descAssigments()": "infinite",
				"returnAssignd()": "429",
				"returnMany()": "473",
				"returnNamed()": "451"
			}
		},
		"methodIdentifiers": {
			"descAssigments()": "d04110fd",
			"returnAssignd()": "2e67bc1b",
			"returnMany()": "86887544",
			"returnNamed()": "3dece511"
		}
	},
	"abi": [
		{
			"inputs": [],
			"name": "descAssigments",
			"outputs": [],
			"stateMutability": "pure",
			"type": "function"
		},
		{
			"inputs": [],
			"name": "returnAssignd",
			"outputs": [
				{
					"internalType": "uint256",
					"name": "x",
					"type": "uint256"
				},
				{
					"internalType": "bool",
					"name": "b",
					"type": "bool"
				}
			],
			"stateMutability": "pure",
			"type": "function"
		},
		{
			"inputs": [],
			"name": "returnMany",
			"outputs": [
				{
					"internalType": "uint256",
					"name": "",
					"type": "uint256"
				},
				{
					"internalType": "bool",
					"name": "",
					"type": "bool"
				}
			],
			"stateMutability": "pure",
			"type": "function"
		},
		{
			"inputs": [],
			"name": "returnNamed",
			"outputs": [
				{
					"internalType": "uint256",
					"name": "x",
					"type": "uint256"
				},
				{
					"internalType": "bool",
					"name": "b",
					"type": "bool"
				}
			],
			"stateMutability": "pure",
			"type": "function"
		}
	]
}